:100000000C9462000C948A000C948A000C94751F66
:100010000C94751F0C94751F0C948A000C947F1F10
:100020000C948A000C948A000C948A000C945A2137
:100030000C948A000C948A000C948A000C948A0018
:100040000C94D31E0C948A000C94431F0C941D1F17
:100050000C948A000C948A000C948A000C948A00F8
:100060000C943B200C948A00000000002400270020
:100070002A0000000000250028002B0000000008D6
:10008000000201000003040700000000000000005F
:1000900000000000230026002900040404040404D6
:1000A0000404020202020202030303030303010227
:1000B00004081020408001020408102001020408F6
:1000C0001020122311241FBECFEFD8E0DEBFCDBF1A
:1000D00012E0A0E0B1E0E2E9F6E502C005900D9281
:1000E000A830B107D9F725E0A8E0B2E001C01D9221
:1000F000A33DB207E1F710E0C2E6D0E004C02197CB
:10010000FE010E94BC29C136D107C9F70E94B02365
:100110000C94472B0C9400000F931F93CF93DF9305
:10012000EC010EE014E0D8018D919C916C2F6F775B
:10013000DC01ED91FC910190F081E02D0995F80131
:1001400080819181CC0FCD2FCC1FDD0B6C2F6F7771
:10015000DC01ED91FC910190F081E02DDF91CF91D8
:100160001F910F910994CF93DF93EB01A0910E049F
:10017000B0910F048F70682F606EED91FC91119714
:100180000190F081E02DCD010995CE01DF91CF9155
:100190000C948C0080910E0490910F04DC01ED9181
:1001A000FC910190F081E02D67EF099480910E049D
:1001B00090910F04DC01ED91FC910190F081E02D14
:1001C00060EF0994FF920F931F93CF93DF93C82F93
:1001D000062FF42E152F0E94D60080910E049091C8
:1001E0000F04DC01ED91FC910190F081E02D6C2F6A
:1001F0000995CF2DD12F0C0F1D2F111DC017D10721
:1002000029F0899190E00E948C00F8CFDF91CF9186
:100210001F910F91FF900C94CA008091EB02909176
:10022000EC02891B990B0895CF93DF930E94D600AF
:1002300080910E0490910F04DC01ED91FC910190EE
:10024000F081E02D69E7099580910E0490910F04EB
:10025000A0911104B0911204EC01E881F9810190A0
:10026000F081E02D6C91099580910E0490910F041E
:10027000A0911104B0911204EC01E881F981019080
:10028000F081E02D11966C910995C2E080911004E7
:10029000C81760F4E0911104F0911204EC0FF11D05
:1002A000808190E00E948C00CF5FF0CFDF91CF91F2
:1002B0000C94CA00CF93DF93CEE0D4E0888199817B
:1002C000DC01ED91FC910190F081E02D69EF099541
:1002D00088819981DC01ED91FC910190F081E02D04
:1002E00062E0099588819981DC01ED91FC91019092
:1002F000F081E02D65E0DF91CF910994A0910E048B
:10030000B0910F04ED91FC9111970190F081E02DD7
:10031000682FCD01099410921304109214041092C6
:100320001504E6E1F4E0119284E0E635F807D9F728
:10033000109256041092580410925704E091A104B0
:10034000F091A204309709F009940895833081F068
:1003500028F4813099F08230A9F008958730A9F00F
:100360008830C9F08430B1F4809180008F7D03C063
:10037000809180008F7780938000089584B58F7777
:1003800084BD089584B58F7DFBCF8091B0008F77B9
:100390008093B00008958091B0008F7DF9CFCF9306
:1003A000DF93282F30E0F901E458FF4F8491F901E1
:1003B000E255FF4FD491F901E656FF4FC491CC238B
:1003C000A1F081110E94A601EC2FF0E0EE0FFF1FBB
:1003D000E057FF4FA591B491EC91ED2381E090E0BF
:1003E00009F480E0DF91CF91089580E090E0FACFAA
:1003F0001F93CF93DF93282F30E0F901E458FF4F8C
:100400008491F901E255FF4FD491F901E656FF4F6F
:10041000C491CC23A9F0162F81110E94A601EC2FC4
:10042000F0E0EE0FFF1FEE58FF4FA591B4918FB78C
:10043000F894EC91111108C0D095DE23DC938FBFA6
:10044000DF91CF911F910895DE2BF8CFCF93DF93EB
:1004500090E0FC01E255FF4F249186569F4FFC012E
:1004600084918823C9F090E0880F991FFC01E85916
:10047000FF4FA591B491FC01EE58FF4FC591D49167
:1004800061110DC09FB7F8948C91209582238C93B5
:100490008881282328839FBFDF91CF910895623000
:1004A00051F49FB7F8943C91822F809583238C93CD
:1004B000E8812E2BEFCF8FB7F894EC912E2B2C9355
:1004C0008FBFEACF8E3008F08E50877080648093A3
:1004D0007C0080917A00806480937A0080917A0019
:1004E00086FDFCCF8091780090917900089582304C
:1004F000910538F0880F991F880F991F059701976C
:10050000F1F708953FB7F8948091D7029091D802FF
:10051000A091D902B091DA0226B5A89B05C02F3F61
:1005200019F00196A11DB11D3FBFBA2FA92F982F19
:100530008827BC01CD01620F711D811D911D42E014
:10054000660F771F881F991F4A95D1F708958F92DC
:100550009F92AF92BF92CF92DF92EF92FF926B0188
:100560007C010E9482024B015C01C114D104E104B0
:10057000F104B9F00E948202681979098A099B097D
:10058000683E73408105910580F321E0C21AD108CD
:10059000E108F10888EE880E83E0981EA11CB11CCA
:1005A000E4CFFF90EF90DF90CF90BF90AF909F90FF
:1005B0008F90089508950895AF92BF92CF92DF92E1
:1005C000EF92FF920F931F93CF93DF936C017B0108
:1005D0008B01040F151FEB015E01AE18BF08C01799
:1005E000D10759F06991D601ED91FC910190F0810C
:1005F000E02DC6010995892B79F7C501DF91CF91CF
:100600001F910F91FF90EF90DF90CF90BF90AF9030
:100610000895FC01538D448D252F30E0842F90E008
:10062000821B930B541710F0CF96089501970895ED
:10063000FC01918D828D981761F0A28DAE0FBF2FB6
:10064000B11D5D968C91928D9F5F9F73928F90E00C
:1006500008958FEF9FEF0895FC01918D828D98177B
:1006600031F0828DE80FF11D858D90E008958FEFB8
:100670009FEF0895FC01918D228D892F90E0805C81
:100680009F4F821B91098F73992708958BE693E002
:100690000E943A0321E0892B09F420E0822F08957B
:1006A00080E090E0892B29F00E94460381110C9490
:1006B00000000895FC01A48DA80FB92FB11DA35A05
:1006C000BF4F2C91848D90E001968F739927848F72
:1006D000A689B7892C93A089B1898C918370806495
:1006E0008C93938D848D981306C00288F389E02D36
:1006F00080818F7D80830895EF92FF920F931F93E7
:10070000CF93DF93EC0181E0888F9B8D8C8D9813C4
:100710001AC0E889F989808185FF15C09FB7F894D0
:10072000EE89FF896083E889F9898081837080641C
:1007300080839FBF81E090E0DF91CF911F910F9167
:10074000FF90EF900895F62E0B8D10E00F5F1F4F76
:100750000F731127E02E8C8D8E110CC00FB607FC85
:10076000FACFE889F989808185FFF5CFCE010E9413
:100770005A03F1CFEB8DEC0FFD2FF11DE35AFF4F24
:10078000F0829FB7F8940B8FEA89FB8980818062A1
:10079000CFCF8BE693E00C947C03682F8BE693E03D
:1007A0000C947C03682F8BE693E00C947C03CF932E
:1007B000DF93EC01888D8823B9F0AA89BB89E88989
:1007C000F9898C9185FD03C0808186FD0DC00FB62F
:1007D00007FCF7CF8C9185FFF2CF808185FFEDCFAD
:1007E000CE010E945A03E9CFDF91CF9108958F92F5
:1007F0009F92AF92BF92CF92DF92EF92FF926B01E6
:100800007C010E9482024B015C0184E0C81AD1087D
:10081000E108F108C80CD91CEA1CFB1CC814D90457
:10082000EA04FB0438F40E94820286169706A806A2
:10083000B906C8F30E9482026C157D058E059F05DE
:10084000C8F3FF90EF90DF90CF90BF90AF909F9054
:100850008F9008952091B0002F7D2093B0008530B7
:10086000910528F0BC0190E080E00C94F703089516
:10087000E0EBF0E0208120622083BC0190E080E08A
:100880000C94F70320917502260F3327331F213272
:100890003105ECF420914103FC0190E080E024302C
:1008A00069F082E00895A09175022191AC014B5A44
:1008B0005D4FA40FB52FB11D2C930196861798F3A9
:1008C00080917502680F6093750280E0089581E061
:1008D00008951092410381E08093400310921B031E
:1008E00061E082E10E94F80161E083E10E94F80189
:1008F000E9EBF0E080818E7F808380818D7F808333
:1009000088E48093B80085E48093BC000895CF9379
:10091000DF9391E0909354028823B9F0C091B8001E
:10092000D091BA008091BC008A7B8093BC0060E0CB
:1009300082E10E94F80160E083E10E94F8010E94D8
:100940006904D093BA00C093B800DF91CF910895A5
:100950008F929F92AF92BF92CF92DF92EF92FF92CF
:100960000F931F93CF93DF93D0916A03D13208F096
:10097000D7C0182FC09169030E9482026B017C01CD
:100980008091410381116BC082E0809341031093F9
:1009900040038FEF80933F0310923E03D0933D03BB
:1009A000A9E4B3E0EDE1F3E080E0D81391C0109248
:1009B0001C0380911C03CC0FC82BC0931C03809197
:1009C0001B03813009F088C010921B030E94820231
:1009D0006B017C0180911C038093BB0080914303D9
:1009E00090914403A0914503B0914603892B8A2B33
:1009F0008B2BA1F00E9482020091430310914403CB
:100A000020914503309146036C197D098E099F0999
:100A1000061717072807390708F442C08091BC0061
:100A200083FDD8CF85EC8093BC000E9482026B01CD
:100A30007C0180914103823009F450C080913F03D2
:100A40008F3F09F46FC080913F03803209F46CC07E
:100A500080913F03803309F469C084E026C080910F
:100A6000430390914403A0914503B0914603892B21
:100A70008A2B8B2B09F484CF0E948202809043033F
:100A800090904403A0904503B09046036C197D09F3
:100A90008E099F0986169706A806B90608F070CF3A
:100AA000809142030E94870485E0109248031092CF
:100AB0006A0310924703DF91CF911F910F91FF902E
:100AC000EF90DF90CF90BF90AF909F908F90089560
:100AD0009D9191938F5F69CF85EEA5CF8091430360
:100AE00090914403A0914503B0914603892B8A2B32
:100AF0008B2B09F49ECF0E94820200914303109138
:100B0000440320914503309146036C197D098E09F9
:100B10009F09061717072807390708F08ACFC0CFA3
:100B200081E0C3CF80E0C1CF82E0BFCF83E0BDCF03
:100B3000CF92DF92EF92FF920F931F93CF93DF93A9
:100B4000D82FC62F613208F098C00E9482026B0134
:100B50007C018091410381116BC081E0809341034E
:100B6000809340039FEF90933F0310923E039C0FAE
:100B700090933D0380931C0380911C03DD0FD82BC1
:100B8000D0931C0380911B03813009F078C0109230
:100B90001B030E9482026B017C0180911C038093E5
:100BA000BB008091430390914403A0914503B09111
:100BB0004603892B8A2B8B2BA1F00E948202009185
:100BC00043031091440320914503309146036C196F
:100BD0007D098E099F09061717072807390708F4AA
:100BE00048C08091BC0083FDD8CF85EC8093BC00C9
:100BF0000E9482026B017C0180914103813009F4E3
:100C000040C080913E038C1710F4C0913E03EDE18B
:100C1000F3E0ADEEB2E080E08C1355C08C2FDF9195
:100C2000CF911F910F91FF90EF90DF90CF9008959B
:100C30008091430390914403A0914503B0914603F2
:100C4000892B8A2B8B2B09F484CF0E94820200917E
:100C500043031091440320914503309146036C19DE
:100C60007D098E099F09061717072807390708F01D
:100C700070CF809142030E948704C0E0CFCF85EE01
:100C8000B5CF8091430390914403A0914503B09167
:100C90004603892B8A2B8B2B09F4AECF0E9482024C
:100CA0000091430310914403209145033091460382
:100CB0006C197D098E099F09061717072807390740
:100CC00008F09ACFD6CF91919D938F5FA5CF0895CD
:100CD000E091EC028091EB02E81730F4F0E0E35190
:100CE000FD4F808190E008958FEF9FEF08959091E0
:100CF000EC028091EB022FEF3FEF981748F4E92FB9
:100D0000F0E0E351FD4F208130E09F5F9093EC02D3
:100D1000C9010895CF92DF92EF92FF920F931F9334
:100D2000CF93DF937C01CB018A01209147032223DB
:100D300089F0EB016B01C40ED51ECC15DD0569F001
:100D40006991D701ED91FC910190F081E02DC701EF
:100D50000995F3CF642F0E944204C801DF91CF911F
:100D60001F910F91FF90EF90DF90CF900895CF9358
:100D7000DF931F92CDB7DEB769832091470322230B
:100D8000F9F020916A03203258F021E030E0FC01B4
:100D90003383228390E080E00F90DF91CF9108951C
:100DA00080914803E82FF0E0E75BFC4F9981908346
:100DB0008F5F8093480380936A0381E090E0ECCFDB
:100DC00061E0CE0101960E944204F7CFCF93C82F75
:100DD00081E08093470382E5809369031092480382
:100DE00010926A0388EA94E00E94B7066C2F88EAA2
:100DF00094E00E94B70681E00E94A8046AE070E0D7
:100E000080E090E0CF910C94A70290E080E00895FC
:100E1000DF92EF92FF920F931F93CF93DF93EC013A
:100E2000D62E7A01890188818C3008F067C061E094
:100E30008D2D0E9426028881282F30E0F901EE0FC7
:100E4000FF1FE20FF31FEC54FB4F9D2D9F7360813A
:100E5000607C692B608320E232E02E193F0937FF66
:100E600002C02D5F3F4F35952795359527952983EE
:100E700020E639E0201B310B37FF02C02D5F3F4FCA
:100E800035952795359527952A832CE0622F0E946A
:100E90009C29829FB001112430E020E0AB01420F79
:100EA000531FFA01EE0FFF1FE40FF51FEC54FB4F29
:100EB000908196FD16C02F5F3F4F2C30310571F7A2
:100EC00081110FC01092800082E080938100109207
:100ED000850010928400B19A80916F0082608093A7
:100EE0006F00E8818E2F90E0FC01EE0FFF1FE80FEE
:100EF000F91FEC54FB4F8081806480838881DF91EF
:100F0000CF911F910F91FF90EF90DF900895CF93B5
:100F10008630B0F421E030E0082E02C0220F331FEB
:100F20000A94E2F74091CC025091CD02672B51F424
:100F300020953095242335233093CD022093CC0285
:100F4000CF910895242B352B3093CD022093CC02E2
:100F5000909152029111F4CFC82F0E946202BC01FD
:100F60008C2FCF910C94B3005F926F927F928F92EF
:100F70009F92AF92BF92CF92DF92EF92FF920F9328
:100F80001F93CF93DF93833008F061C0D1E0D80F77
:100F9000DD0FDD0FDD0F5D2ED53110F044E1542E55
:100FA000C62F082FD8508D2E912CC401880F991F61
:100FB0009C01225F3B4F5901D12CC12C10E07724BA
:100FC0007394D515C8F58EEF8D0F8231F8F4F601C4
:100FD000E80DF91DE75AFB4F90819230B8F48C2F41
:100FE000872166246394811101C0612C7601EE0C87
:100FF000FF1C913089F417293FE5E30EF11CF50140
:10100000EE0DFF1D862D90E091838083770CDF5FCE
:101010008FEFC81AD80AD5CF882371F3F701E15AA8
:10102000FF4FEA0DFB1D80819181019729F362E05A
:101030008D2F0E942602E0CF011119C0F8948BB1C8
:101040006C2F68276C7F612368276BB97894DF91D8
:10105000CF911F910F91FF90EF90DF90CF90BF90B5
:10106000AF909F908F907F906F905F900895013028
:10107000D1F4C123F89495B1812F8F738095892382
:101080009C2F9F73892B85B988B1612F62956695D6
:101090006695637060956823C295C695C695C370C2
:1010A000C62BC8B9D3CF1F70F89498B1812F880F81
:1010B000880F80958923C123CC0FCC0FC82BF1CF8B
:1010C0008F929F92AF92BF92CF92DF92EF92FF9258
:1010D0000F931F93CF93DF93EB01843108F098C0F7
:1010E000082F10E0F801E75AFB4F9081933009F484
:1010F0009CC0943009F08CC08250823108F081C0CD
:10110000F801E65CFD4FC080D12C7601EE0CFF1C8F
:101110004B01603282E078070CF03EC0F701EC0D25
:10112000FD1DE555FA4F8181A8E88A2E912C881A79
:10113000910887FD9394880C991C880C991C092CA4
:10114000000CAA08BB08828128E532E0281B31097F
:1011500087FD3395220F331F220F331F032E000C00
:10116000440B550B281939094A095B09DB01653B1A
:10117000710514F0A4EBB0E0B7FF02C0B0E0A0E04E
:101180000E941A2724EB30E040E050E00E94F02655
:10119000820E931EA41EB51EF701EC0DFD1DE55534
:1011A000FA4F20812C3068F5318188E890E0831B6C
:1011B000910937FD9395880F991F880F991F8816FD
:1011C00099067CF0328188E592E0831B910937FD16
:1011D0009395880F991F880F991F881699060CF40C
:1011E000C4010297880F991F4FB7F89430E0F901B6
:1011F000EE0FFF1FE20FF31FEC54FB4F928381832E
:101200004FBF000F111FF801E359FB4FD183C0837B
:10121000DF91CF911F910F91FF90EF90DF90CF90D2
:10122000BF90AF909F908F9008957B01D82F83300F
:1012300041F08BEF800F823020F087EF800F8330FA
:1012400058F461E08D2F0E942602E114F10461F44C
:1012500060E08D2F0E94F801000F111FF801E35983
:10126000FB4FF182E082D4CF8FEFE816F10411F446
:1012700061E0EFCFF801E458FF4FE491E33021F152
:1012800048F4E130B9F0E230D1F080E8E816F1043A
:101290007CF7DECFE73011F1E83041F1E430A9F717
:1012A00080918000806280938000F0928B00E092B9
:1012B0008A00D2CF84B5806884BDE7BCCDCF84B529
:1012C000806284BDE8BCC8CF809180008068809334
:1012D0008000F0928900E0928800BECF8091B0003B
:1012E00080688093B000E092B300B6CF8091B000E8
:1012F00080628093B000E092B400AECF9EEF980F72
:10130000923180F4E82FF0E0DF01A75ABB4F9C91A7
:10131000913041F4EE0FFF1FE359FB4F608371835F
:101320000C94F80108950F931F93CF93082F10E0AA
:10133000F801E256FD4F9081C62FC923025B1D4F75
:10134000411104C0D8019C919C1771F1682F8091C4
:101350000E0490910F046F706069DC01ED91FC91B7
:101360000190F081E02D099580910E0490910F0479
:101370006C2F6F77DC01ED91FC910190F081E02DF5
:10138000099580910E0490910F046C2F70E0660F08
:10139000672F661F770BDC01ED91FC910190F081C6
:1013A000E02D0995F801C083CF911F910F91089509
:1013B000833040F5282F30E0F901EF55FD4F608371
:1013C000672B01F122563D4FF9016081811106C062
:1013D00099B19C7F692341E00C949309813049F4D1
:1013E00093B126B19F73F0E42F9F90011124922BAB
:1013F000F1CF26B130E035952795359527952F709B
:101400006223E9CF0895A82FB0E0A65CBD4FEC9110
:101410008E2F90E0FC01EE0FFF1FE80FF91FE5553E
:10142000FA4F8081282F30E0F901EE0FFF1FE20F05
:10143000F31FEC54FB4F90819F7B90832CE0622F35
:101440000E949C29829FC001112430E020E0AC0161
:10145000420F531FFA01EE0FFF1FE40FF51FEC546C
:10146000FB4F408146FD11C02F5F3F4F2C303105AF
:1014700071F71092810082E08093810081E0809377
:1014800081008093800010926F008C9190913802BF
:10149000891308C0882319F08150809338028FEF98
:1014A0008C9308959923D9F3E0913902EF5FE0938B
:1014B0003902F0E0E95FFD4F8083F1CFFC0101903C
:1014C0000020E9F73197BF01681B790BAC0181E778
:1014D0000C94E200CF93DF93DB01909138029C30B3
:1014E00078F530913902682F70E0FB01E65CFD4F22
:1014F0003323E1F0C32FD0E0C95FDD4F88818083C3
:10150000315030933902808123E0829FC001112441
:1015100085559A4F1A161B0674F4141615065CF4BA
:101520009A01AD01DF91CF910C94080790839F5FE2
:1015300090933802E8CF20E639E040E252E0F2CF63
:1015400083E391E0DF91CF910C945E0A8F929F929A
:10155000AF92BF92EF92FF920F931F93CF93DF93BF
:10156000CDB7DEB7A1970FB6F894DEBF0FBECDBFE3
:101570007C01FA01CB0119A2223008F42AE08E0185
:101580000F5D1F4F822E912CB12CA12CBF01A50104
:1015900094010E942227F901CA016A3074F5605D46
:1015A000D8016E938D01232B242B252B79F790E006
:1015B00080E0109789F0FD0101900020E9F7319754
:1015C000AF014A1B5B0BD701ED91FC910280F381C7
:1015D000E02DB801C7010995A1960FB6F894DEBFBA
:1015E0000FBECDBFDF91CF911F910F91FF90EF9074
:1015F000BF90AF909F908F900895695CD1CFEF928C
:10160000FF920F931F93CF93DF93D82F8B01C42F9B
:10161000F22E6F3F760709F448C081E080934703BC
:10162000D09369031092480310926A0388EA94E009
:101630000E94B7068F2D0E94A804809136029091D7
:101640003702009711F00E9477026C2FC13208F028
:1016500060E28D2F0E9498051092EC028093EB02BD
:10166000EC2EF12C90E0E816F9060CF587E491E0F9
:101670000E945E0AD09314020093150204E112E066
:10168000C801845192408E159F05BCF40F5F1F4F17
:101690009091EB028091EC02981779F088EA94E03F
:1016A0000E947706F8018183EBCF00E0CECF8E1544
:1016B0009F0504F784E691E0DBCF62E06C0F44E124
:1016C00052E087E7DF91CF911F910F91FF90EF904C
:1016D0000C94E200FF920F931F93CF93DF93CDB74B
:1016E000DEB72C970FB6F894DEBF0FBECDBF66E015
:1016F00082E50E949805F82E1092EC028093EB028E
:101700008E010F5F1F4F8091EC02F81649F088EAB6
:1017100094E00E947706F801819391938F01F3CFB3
:1017200089819A8190930E0380930D038B819C8114
:101730009093100380930F038B859C852D813E81B0
:10174000220F331F220F331FAC0155954795559536
:10175000479543705527242B352B30931203209344
:1017600011032F813885220F331F220F331FAC0145
:10177000E4E055954795EA95E1F743705527242B0A
:10178000352B309314032093130329853A85220FB8
:10179000331F220F331FAC01A6E055954795AA953C
:1017A000E1F743705527242B352B309316032093F4
:1017B00015039C0120953095217033273093180331
:1017C0002093170321E030E081FF02C030E020E0E9
:1017D00030931A032093190360E080E02C960FB633
:1017E000F894DEBF0FBECDBFDF91CF911F910F9157
:1017F000FF900C94E6068F929F92AF92BF92CF9289
:10180000DF92EF92FF920F931F93CF93DF937C01B0
:10181000EB016C0182E0C80ED11C4701E5E08E0EA1
:10182000911C10E000E0F60141916F0150E070E082
:1018300060E02AE0CE010E94A60A5C01E881F981FD
:101840000190F081E02D6EE2CE0109958A0D9B1D7D
:10185000080F191FC814D90431F7F701458150E06A
:1018600070E060E02AE0CE010E94A60A800F911F7E
:10187000DF91CF911F910F91FF90EF90DF90CF906C
:10188000BF90AF909F908F9008959F92AF92BF921C
:10189000CF92DF92EF92FF920F931F93CF93DF933C
:1018A000C82ED12CE601C25FDB4FFE01E55BFF4F86
:1018B00090819F3709F49FC0963061F49091510256
:1018C000992341F06630710529F0109251029FEF83
:1018D000909300017B01182F0EEF080F023108F5DD
:1018E00064307105F1F0F601E65CFD4F80818C30CB
:1018F000C0F490E0FC01EE0FFF1FE80FF91FE55563
:10190000FA4FE0818E2F90E0FC01EE0FFF1FE80FF1
:10191000F91FEC54FB4F808186FF03C0812F0E948A
:10192000030A52EF952E910E85E0891558F061E07B
:1019300070E032E0E316F10411F070E060E0892D10
:101940000E9487070231C8F4E12FE695E695E695F7
:10195000F0E0E256FD4F2081312F377081E090E0BA
:1019600001C0880F3A95EAF7E114F10421F03BE059
:10197000E316F10401F5822B80835601AA0CBB1CEF
:10198000F501E359FB4F118210828CE0E816F10457
:1019900008F0C4C0F701E153F34F0C94BC29EF0CDD
:1019A0001C0DDE0C2D0D4B0D8E0D820D8E0D8E0D32
:1019B0008E0DFB0C070D80958223DECF35E03915A7
:1019C000D0F0023120F460E0812F0E942602C55B36
:1019D000DF4F88818F3779F082E088830CC0023135
:1019E00050F460E0812F0E942602C55BDF4F8881A2
:1019F0008F3709F01882DF91CF911F910F91FF90DF
:101A0000EF90DF90CF90BF90AF909F9008950231FC
:101A100090F762E0812F0E942602C55BDF4F88812C
:101A20008F3711F08BE08883F501E359FB4F81E09C
:101A300090E091838083DFCF0231E8F660E0812F70
:101A40000E94F80161E0812F0E942602C55BDF4FF2
:101A500088818F3781F281E0C0CF133041F08BEF66
:101A6000810F823020F087EF810F833020F661E014
:101A7000812F0E94260261E0812F0E94260260E0F1
:101A8000812F0E94F801C55BDF4F88818F3709F4F1
:101A9000B2CF83E0A2CF023108F0ADCFC55BDF4FFC
:101AA00088818F3711F084E08883F601E65CFD4F72
:101AB00080818F3FA9F090E0FC01EE0FFF1FE80F3F
:101AC000F91FE555FA4FE0818E2F90E0FC01EE0FF3
:101AD000FF1FE80FF91FEC54FB4F808186FD8BCF71
:101AE0004FEF5FEF6FEF7FEF812FDF91CF911F916E
:101AF0000F91FF90EF90DF90CF90BF90AF909F90AD
:101B00000C946A0A1251123008F075CFC55BDF4F92
:101B100088818F3709F46FCF86E05FCF80E891E04E
:101B2000DF91CF911F910F91FF90EF90DF90CF90B9
:101B3000BF90AF909F900C945E0A0F931F93CF932A
:101B4000DF9381E08093520280915102882329F033
:101B5000109251028FEF809300011092A102109217
:101B60009E0210924E021092A20210929F021092B8
:101B70004F021092A3021092A002109250020AE3A8
:101B800012E0C0E0DFEF82EF8C0F62E070E08630A1
:101B900030F08EEF8C0F823128F461E070E08C2FF2
:101BA0000E94450CF801D1938F01CF5FC43159F7E2
:101BB0001092CD021092CC0210923902109238028B
:101BC00010925202DF91CF911F910F9108950F93C0
:101BD0001F9390E0FC01E255FF4F7491FC01E65623
:101BE000FF4FE4916111672FF0E0EE0FFF1FE05708
:101BF000FF4F8591949189019A013F70462F672F7D
:101C00000E941622611571058105910529F06F5F0B
:101C10007F4F8F4F9F4F9F701F910F91089585EDBC
:101C20008093BC008091430390914403A0914503AD
:101C3000B09146030796A11DB11D23E0B695A79567
:101C4000979587952A95D1F72091BC0024FD03C074
:101C500010924103089540914303509144036091D1
:101C6000450370914603452B462B472B69F300979C
:101C7000A105B10541F02AE22A95F1F700C00197CC
:101C8000A109B109E1CF809142030C9487042F92FE
:101C90003F924F925F926F927F928F929F92AF92FC
:101CA000BF92CF92DF92EF92FF920F931F93CF9349
:101CB000DF93CDB7DEB72F970FB6F894DEBF0FBE18
:101CC000CDBFF62E8A01843C09F477C408F0A2C087
:101CD000863709F43DC208F069C08D3609F4DCC3CB
:101CE000F8F4893609F41AC48B3609F476C32F96B2
:101CF0000FB6F894DEBF0FBECDBFDF91CF911F911D
:101D00000F91FF90EF90DF90CF90BF90AF909F909A
:101D10008F907F906F905F904F903F902F9008959D
:101D20008F3609F434C3803711F7B4E0B617F8F6EC
:101D3000FA01F0808EEF8F0D8231C8F6E180C2800B
:101D4000D3801481EF2DF0E0E65CFD4F80818C3074
:101D5000C0F490E0FC01EE0FFF1FE80FF91FE555FE
:101D6000FA4FE0818E2F90E0FC01EE0FFF1FE80F8D
:101D7000F91FEC54FB4F808186FF03C08F2D0E941A
:101D8000030AF0E81F9FA00111244D0D511D20E80A
:101D9000C29EB00111246E0D711D8F2D0E946A0A22
:101DA00064E070E08F2D0E94450CA1CF803C09F4C7
:101DB000C6C3F0F4883709F4ABC28A3709F097CF6D
:101DC00031E0361708F093CFDA0111968C91B0E824
:101DD0008B9F90011124FA018081820F932F911D16
:101DE000009709F4D1C290930201809301017FCF43
:101DF000823C09F4D0C308F4C1C30E946A0B00916D
:101E0000190310911A0380EF90E00E94D20383EC33
:101E100090E0CDC38B3C09F4EFC508F088C0873C47
:101E200009F4F6C398F4853C09F4E5C3863C09F04F
:101E30005ECF0E946A0B009115031091160380EF8C
:101E400090E00E94D20386EC90E0C3C3DA011196C1
:101E50009C901197CC9012963C9112971396BC903F
:101E60001397893C09F471C508F4A9C4EC2CEE0C55
:101E7000992D9295969596959370E92AC32ECC0C40
:101E80008B2D8295869586958370C82A61E08E2D6C
:101E90000E94260260E08E2D0E94F801892D8F712C
:101EA00090E00E94770261E08E2D0E94F8018B2D58
:101EB0008F7190E00E94770260E08E2D0E94F80101
:101EC00060E08C2D0E9426022FEF3FEF40E050E0B3
:101ED00061E08C2D0E94E70D4B0180EF90E00E94A5
:101EE000D2038AEC90E00E94D203892D869590E07F
:101EF0000E94CD03C40196958795969587958F7717
:101F000099270E94CD0315E0880C991C1A95E1F7DA
:101F1000B0E68B2299248C2D869586958695F401C2
:101F2000E82BCF010E94CD038C2D87701FC38E3C00
:101F300011F40C94171C90F48C3C11F40C94FE1BBF
:101F40008D3C09F0D4CE8091B10084608093B100C3
:101F50008091B00081608093B000C9CE803D11F4C3
:101F60000C94E71D10F40C94011D813D09F0BFCEC7
:101F7000E0903402F0903502E114F10409F4B7CE98
:101F8000FA01818190E0009709F4B1CED701129651
:101F90002D913C91B9010E94A8294081413011F056
:101FA0000C947E1E019710F4C901019782179307C4
:101FB00008F053C0D80112962C91129713964C91A9
:101FC000139750E070E060E0762F652F542F442780
:101FD000622B14962C91422B2B0166247724852E9C
:101FE000962EA72EBB24182DB42FF7012085A42DE3
:101FF000222391F0A22FB0E0A49DF001A59DF00D49
:10200000B49DF00D1124AF2F289D40011124192DEE
:10201000249FA0011124B52FF70156852185328513
:10202000438554130C948B1EAC01440F551F840F31
:10203000951F820F931FF7012385FC01E20FF11D0D
:10204000A083F7012485FC01E20FF11D1083F70145
:102050002585820F911DFC01B083D70119968D91C2
:102060009C91892B09F443CE0E948202F7010785D7
:10207000108921893289601771078207930720F43C
:102080006787708B818B928BF70107851089218977
:102090003289601B710B820B930B6C32714081058E
:1020A000910510F3F894D70114968D919C91159792
:1020B0009A8389831996ED91FC911A978F010F5F8E
:1020C0001F4F80818D879C915396ED91FC91549781
:1020D00055968C91992311F40C94971E9081982B0E
:1020E0009C879081809589238B878B85888788E062
:1020F0008E835C856B854D853E81288589819A819B
:10210000D801508347FD252F3A952083262F39F09B
:10211000441F00C000006083000000C0F2CF38E020
:102120004D9160830000019761F7D7015496FC93AD
:10213000EE9353974D873E8328879A8389837894BB
:102140000E948202F7016787708B818B928BCFCDC3
:10215000FA01918195FF05C081E991E00E945E0A34
:10216000C6CDDA01808131E096FB222720F92327B2
:1021700098719830A9F1F0F49111B9CD30934703DB
:10218000809369031092480310926A0382E0E82E5C
:10219000EF14F0F4F801EE0DF11D618167956627EB
:1021A00067958081680F88EA94E00E94B706E394FF
:1021B000E394EECF903191F1983109F098CD2091D0
:1021C000000112160CF45FC08FEF809300018FCDD9
:1021D00081E00E94A80483E191E00197F1F787CDA7
:1021E00092814381F6E06F1312C030E8439FB00143
:1021F0001124690F711D15964C9115974795442729
:10220000479514969C91490F0E94FF0A70CD4795FF
:1022100044274795490F6FEF7FEFF6CFE09100011C
:10222000E7301CF081EB91E099CF12963C91129728
:1022300013969C91B6E06B131FC0F0E89F9FA0011E
:102240001124430F511DD80115969C911597979510
:102250009927979514963C91930FEF5FE0930001B7
:10226000B5E0EB02F0011124EC55FD4F8083528361
:102270004183938324833BCD979599279795930F1B
:102280004FEF5FEFEACF90E0622F022E000C770B4A
:1022900035E0492F50E06417750764F0349FF00172
:1022A000359FF00D1124EC55FD4F4081481719F072
:1022B0009F5FEFCF90E085E0492F50E064177507EE
:1022C0001CF19830F8F4FA0131968E9FD0018F9F5F
:1022D000B00D1124AC55BD4F3C91849FF001859FFA
:1022E000F00D1124EC55FD4F308311964D915C910A
:1022F00012975283418313963C911397338314961C
:102300003C9134839F5FD8CF215020930001EFCCC4
:10231000FA018181F0E88F9F90011124DA018C91FC
:10232000820F932F911D009721F090933702809395
:102330003602809151028111DACC10E08EEE810FCD
:10234000823028F466E070E0812F0E94450C1F5F08
:102350001431A1F781E0809351021092EC021092A7
:10236000EB021092480310926A030E9469048AEDFE
:1023700092E090939B0280939A028BED92E090936F
:102380009D0280939C02B3CC81E090E02CCDF1E0E3
:10239000F61708F0ACCCDA0111966C9170E0B2E05F
:1023A000FB16B1F0FA018281F0E88F9FC001112481
:1023B000682B792B23E0F21659F0DA0113968C91F1
:1023C00090E090E4899F902D88271124682B792B29
:1023D000F80180810E9460088ACC80EF0E947E0113
:1023E0008CE60E947E011EEF1231F0F480E00E9424
:1023F0007E0181E00E947E018BE00E947E0181E0EF
:102400000E947E0181E00E947E0181E00E947E01A7
:10241000123020F08DEF810F823030F485E00E9481
:102420007E0181E00E947E0184EF810F863078F486
:1024300082E00E947E018AE00E947E018DEF810F82
:10244000823038F089EF810F833048F402C01130B8
:10245000A9F783E00E947E0188E00E947E0112318C
:1024600030F484E00E947E018EE00E947E0180EFC5
:10247000810F823030F486E00E947E0181E00E946C
:102480007E018FE70E947E011F5F123109F0ACCF01
:1024900087EF0E947E012BCC662309F428CCDA0159
:1024A0000C9180EF0E947E018EE60E947E01802FBB
:1024B0000E947E01043160F710E0F801E75AFB4FFB
:1024C00080810E947E01000F111FF801E359FB4F2C
:1024D0007F0180818F770E947E01D7018D919C9131
:1024E0009C012078232B39F0880F892F881F990BA6
:1024F0008F770E947E01F801E359FB4F8081918123
:102500009C012227307C232B19F2990F880B990FFD
:10251000982F881F8F770E947E01BACF80EF0E948C
:102520007E018AE60E947E0112EF8FE7163008F4E2
:10253000812F0E947E011F5F1630B9F7A9CF0E943C
:102540006A0B00910D0310910E0380EF90E00E9442
:10255000D20380EC90E00E94D203C8018F779927C4
:102560000E94D203001F0027001F802F90E00E94CE
:10257000D20387EF90E00E94D203B9CB0E946A0B8E
:1025800000910F031091100380EF90E00E94D2039E
:1025900081EC90E0E0CF0E946A0B0091170310914C
:1025A000180380EF90E00E94D20382EC90E00E943A
:1025B000D203C8018F779927DACF0E946A0B009166
:1025C00011031091120380EF90E00E94D20384EC7B
:1025D00090E00E94D203C8018F7799270E94CD0313
:1025E000C801880F892F881F990B91958F7799279C
:1025F0000E94CD03BECF0E946A0B0091130310917D
:10260000140380EF90E00E94D20385EC90E0E1CFCC
:10261000FA018481C080D12CF12CE12C29E1CC0C71
:10262000DD1CEE1CFF1C2A95D1F7418150E070E0C3
:1026300060E032E1440F551F661F771F3A95D1F7CE
:10264000C42AD52AE62AF72A428150E070E060E0E9
:10265000ABE0440F551F661F771FAA95D1F7C42A18
:10266000D52AE62AF72A438150E070E060E0B4E022
:10267000440F551F661F771FBA95D1F7C42AD52A74
:10268000E62AF72A482F50E070E060E093E0769564
:102690006795579547959A95D1F7C42AD52AE62A82
:1026A000F72AA6802581F0E42F9F9001112490E065
:1026B000982F88279295990F907E282B392BB12C33
:1026C000C50196958795282B392BD80117969C9094
:1026D0002032310510F430E020E0B1E6CB16BAEE3E
:1026E000DB06E104F10430F090E6C92E9AEED92E13
:1026F000E12CF12CF8942115310529F4C701B6011C
:102700000E94A702F4CA50E040E060E271EA87E06C
:1027100090E00E94F02629013A018901A4EFB1E07E
:10272000A70196010E940F27A30192010E94222770
:1027300029013A01B694BA2CAA24B794A7949A28EE
:10274000892D90E0FC01E255FF4FD49086569F4FB3
:10275000FC012491E22FF0E0EE0FFF1FEE58FF4F37
:10276000E590F490FC018491E82FF0E0EE0FFF1F5C
:10277000E859FF4FA591B4918C918D298C93812CB0
:10278000912C5401CD2CC09484149504A604B70454
:10279000A1F0D7018C918D298C93C8010E947702FA
:1027A000F70180818C218083C8010E947702FFEFAE
:1027B0008F1A9F0AAF0ABF0AE7CF789498CA149677
:1027C0002C91D12CF12CE12C99E1CC0CDD1CEE1CD0
:1027D000FF1C9A95D1F7892D90E0B0E0A0E042E18E
:1027E000880F991FAA1FBB1F4A95D1F7C82AD92A5B
:1027F000EA2AFB2A832F90E0B0E0A0E05BE0880F9C
:10280000991FAA1FBB1F5A95D1F7C82AD92AEA2AAD
:10281000FB2A8B2D90E0B0E0A0E064E0880F991FC8
:10282000AA1FBB1F6A95D1F7C82AD92AEA2AFB2A10
:10283000822F90E0B0E0A0E073E0B695A795979561
:1028400087957A95D1F7C82AD92AEA2AFB2A30E057
:10285000B9017595679575956795B62FB170BB2EC3
:10286000F80115811F73F6E0220F331FFA95E1F787
:10287000122B60E0812F0E94260220E432E44FE018
:1028800050E0C114D104E104F10411F0A701960154
:102890006B2D812F0E94E70D6B017C0180EF90E092
:1028A0000E94D20388EC90E00E94D203C701B601D7
:1028B000F9E19695879577956795FA95D1F70E94F6
:1028C000C903C701B601A2E19695879577956795EB
:1028D000AA95D1F76F777727882799270E94C90390
:1028E000C701B601BBE09695879577956795BA9530
:1028F000D1F76F777727882799270E94C903C701E7
:10290000B60104E096958795779567950A95D1F776
:102910006F777727882799270E94C90383E0CC0C1B
:10292000DD1CEE1CFF1C8A95D1F7C701B601687744
:10293000772788279927212F229526952770622BA4
:102940000E94C9031F71812F11CE892D90E0F0E103
:10295000CF9E700111246C0123E0D694C7942A9570
:10296000E1F7EC28FD28CB2CD12CA32EB12CAA0CFE
:10297000BB1C982F8827A82AB92AC60156E096952D
:1029800087955A95E1F7A82AB92A14968C9014973E
:1029900065E0CC0CDD1C6A95E1F7912CC40196959D
:1029A000879596958795C82AD92A15961C9180FAFD
:1029B00017F961E0812F0E9426029594879499244B
:1029C000939400E080FC02C0912C01E0602F812FE5
:1029D0000E94F801C7010E947702692D812F0E9491
:1029E000F801C5010E947702602F812F0E94F80133
:1029F000C6010E9477027BC982E08093D9041092BD
:102A0000DD048FB7F894C090D302D090D402E09048
:102A1000D502F090D6028FBFF0EDCF0EF7E0DF1EAB
:102A2000E11CF11C22242394312C20EE34E030935D
:102A3000E6022093E5028091DD0490E09093E802A5
:102A40008093E7028091AA0590E09093EA02809338
:102A5000E9028091D904853009F0BEC68091E20474
:102A60009091E304885891098D35910508F0B6C01E
:102A70008091DD04843009F085C08091E404909158
:102A8000E5048097479708F07DC08091E604909117
:102A9000E7040997099708F075C01092E4021092B4
:102AA000E3028FEF9FEFDC018093DF029093E0025F
:102AB000A093E102B093E20283E090E09093DC0205
:102AC0008093DB02C090DF02D090E002E090E10250
:102AD000F090E2021092DF021092E0021092E10206
:102AE0001092E20280EF90E00E94D2038BEC90E023
:102AF0000E94D203C701B601A9E196958795779503
:102B00006795AA95D1F70E94C903C701B601B2E142
:102B10009695879577956795BA95D1F76F777727CB
:102B2000882799270E94C903C701B6011BE0969523
:102B30008795779567951A95D1F76F7777278827C7
:102B400099270E94C903C701B60104E096958795AD
:102B5000779567950A95D1F76F7777278827992713
:102B60000E94C90383E0CC0CDD1CEE1CFF1C8A957F
:102B7000D1F7C701B60168777727882799270E9480
:102B8000C903F7CC8091DD04843440F18091E404E2
:102B90009091E504825491098E9700F590E080E0D1
:102BA00040E050E0BA01FC01EA51FB4F2081318145
:102BB000295031092930310588F4FC01E851FB4FD7
:102BC00020813181275131092231310528F12081BD
:102BD00031812650310927303105B8F18091DD046B
:102BE0008A3108F467C08091E0049091E104843F49
:102BF000914080F51092E4021092E3028FEF9FEF74
:102C0000DC018093DF029093E002A093E102B09395
:102C1000E2028BE090E052CF440F551F661F771FF2
:102C2000416004968038910509F0BDCF80E290E0C4
:102C30009093E4028093E3024093DF025093E0021A
:102C40006093E1027093E20237CF440F551F661F75
:102C5000771FE7CF8091E2049091E30485974B972B
:102C600048F5E9EDF4E082E090E0812C912C5401EC
:102C70009C012F5F3F4F4091DD044217130609F07E
:102C80000CF4F6C04385548547505109473051052F
:102C900008F0EDC025853685235131092F303105E7
:102CA00008F4D7C0258536852A50310929303105E9
:102CB00008F4D8C08091DD048A3108F441C08091C5
:102CC000E0049091E1048032934008F493CF809126
:102CD000E2049091E304C697869790F58091E4040E
:102CE0009091E504C697869758F5E8EEF4E083E006
:102CF00090E0812C912C54019C012F5F3F4F40911B
:102D0000DD044217130609F00CF4DAC0DF01129754
:102D10004D915C914C5051094B30510508F0CFC09A
:102D200020813181255231092B31310508F4B9C098
:102D3000208131812C5031092A30310508F4BAC084
:102D40008091DD04823238F18091E2049091E304B5
:102D50000697079700F5E9EDF4E082E090E040E0A7
:102D600050E0BA01DC0111962091DD042A171B0600
:102D700009F00CF4D1C0238534852E513109273157
:102D8000310508F4B4C0238534852C5031092B302B
:102D9000310508F4BBC01F821E823A8229828091CD
:102DA000DD048D3008F4E9C049E753E0BE016A5FF5
:102DB0007F4FCE0101960E949F22892B09F0DDC032
:102DC00049E753E0BE016A5F7F4FCE0101960E9442
:102DD0009F22019709F0D1C049E753E0BE016A5F25
:102DE0007F4FCE0101960E949F228C01892B09F012
:102DF000C4C0412C512C32012091DD0489819A817B
:102E00002817190609F00CF4A9C049E753E0BE01E0
:102E10006A5F7F4FCE0101960E949F225C0149E7C5
:102E200053E0BE016A5F7F4FCE0101960E949F2250
:102E300051E0A516B10409F088C0892B09F09DC0A6
:102E4000440C551C661C771C689440F80F5F1F4F9C
:102E5000D3CF880C991CAA1CBB1C689480F80296DE
:102E6000349606CF880C991CAA1CBB1CF8CFC9014C
:102E70000197959587959093E4028093E3020C97D0
:102E80002CF41092E4021092E30214CF8092DF023D
:102E90009092E002A092E102B092E20284E090E01F
:102EA0000DCE880C991CAA1CBB1C689480F8029655
:102EB000349622CF880C991CAA1CBB1CF8CFC901E0
:102EC0000197959587959093E4028093E3020C9780
:102ED0002CF41092E4021092E30232CF8092DF02CF
:102EE0009092E002A092E102B092E20292CE440FF0
:102EF000551F661F771F4160258536853496235000
:102F000031092530310538F402962CCF440F551F76
:102F1000661F771FF1CFCD01019795958795909307
:102F2000E4028093E30240972CF41092E4021092A2
:102F3000E30231CF4093DF025093E0026093E1025D
:102F40007093E2028CE090E0B9CDAB28B1F4019728
:102F5000A1F4440C551C661C771C78CF1093E40236
:102F60000093E3024092DF025092E0026092E1029D
:102F70007092E20281E090E0A1CD1F821E823A822F
:102F800029828091E7029091E802181619060CF048
:102F90007EC0E091E502F091E60282E090E09A8343
:102FA00089838281938189974E9708F070C0A3E04E
:102FB000B0E0BA83A983848195810B970A9708F0C2
:102FC00066C04CEB51E0BE016A5F7F4FCE010196B7
:102FD0000E949F228C01892B09F059C04CEB51E0D3
:102FE000BE016A5F7F4FCE0101960E949F2201972A
:102FF00009F04DC0412C512C32012091E702309153
:10300000E80289819A81821793070CF0E5C04CEBA6
:1030100051E0BE016A5F7F4FCE0101960E949F2260
:103020005C010330110539F14CEB51E0BE016A5FE0
:103030007F4FCE0101960E949F224C010330110563
:1030400061F44CEB51E0BE016A5F7F4FCE01019607
:103050000E949F2288169906D1F4A114B10409F4A4
:10306000AEC0AA94AB2899F4892889F4440C551C65
:10307000661C771CAEC04CEB51E0BE016A5F7F4F0F
:10308000CE0101960E949F22A816B90669F2E0912E
:10309000E502F091E60282819381C697869778F5E2
:1030A000848195814B97459750F5DF0116965F0116
:1030B00026ECA20EB11C20E030E040E050E060E0E1
:1030C00070E080E090E00D911C911197095011097A
:1030D00008301105A0F412960D911C91139701511F
:1030E00011090D30110508F486C012960D911C913E
:1030F0001397045011090530110508F4A1C08091FF
:10310000DD04893380F18281938189579109833568
:10311000910548F584819581CA97899720F59F018B
:103120002A5F3F4F812C912C540143E050E0D9019C
:103130006D917C9111976A5071096930710598F40D
:1031400012966D917C9113976651710961317105E9
:1031500008F47AC012966D917C91665071096730BF
:10316000710508F4A0C08091DD04823209F0A0C08E
:10317000828193810A97099708F09AC0A091DD0493
:10318000B0E0A150B048AA0FBB1FAE0FBF1F8D917A
:103190009C910A97099708F08BC01092E402109254
:1031A000E3028FEF9FEFDC018093DF029093E00258
:1031B000A093E102B093E20286E090E07FCC8A9493
:1031C000892809F064CF440C551C661C771C689450
:1031D00040F80F5F1F4F11CF1093E4020093E302FA
:1031E0004092DF025092E0026092E1027092E202AD
:1031F00082E090E063CC01E00E94C2292160149635
:10320000AA16BB0609F05FCF2093DF023093E002DD
:103210004093E1025093E20200E20E94DD292093F4
:10322000DD023093DE0285E090E09093DC02809333
:10323000DB0280E390E09093E4028093E30242CCCF
:1032400001E00E94C229DBCFD501C401880F991F7C
:10325000AA1FBB1F4C015D01689480F84E5F5F4F51
:103260002C5F3F4F4B33510509F061CF9F012A5826
:103270003F4FD9012D913C912A5031092930310518
:1032800008F071CF2CE130E03093E4022093E302A8
:103290008092DF029092E002A092E102B092E202FC
:1032A0008AE090E00BCC880C991CAA1CBB1CD6CFE2
:1032B00082819381895791098335910560F58091C9
:1032C000DD04813240F184819581CA97899718F590
:1032D0009F012A5F3F4F812C912C540143E050E025
:1032E000D9016D917C9111976A507109693071050E
:1032F00090F412966D917C9113976651710961312A
:10330000710598F112966D917C9166507109673044
:10331000710508F457C0828193818C549109C59737
:1033200008F084C08091DD04843009F050C08481AD
:1033300095818097479708F04AC0868197810997C1
:10334000099708F044C01092E4021092E3028FEF54
:103350009FEFDC018093DF029093E002A093E102F3
:10336000B093E20287E090E0A9CBD501C401880FB9
:10337000991FAA1FBB1F4C015D01689480F84E5F26
:103380005F4F2C5F3F4F4332510509F0A9CF9F019A
:103390002A5B3F4FD9012D913C912A5031092930A8
:1033A000310508F0B8CF20E130E03093E4022093FB
:1033B000E3028092DF029092E002A092E102B092DA
:1033C000E202FACE880C991CAA1CBB1CD8CF8091B3
:1033D000DD04843458F18481958189549109C3971F
:1033E00028F59F012A5F3F4FBF016A577F4F812C0D
:1033F000912C5401D9014D915C911197495051097B
:103400004930510598F412964D915C9113974651AD
:1034100051094131510508F4A2C012964D915C91B9
:10342000465051094730510508F4B8C08091DD0479
:103430008634C0F1828193810C970B9798F5848133
:1034400095810997099770F5868197818C974F9799
:1034500048F58085918589974D9720F59F01265FD6
:103460003F4F812C912C540145E050E0D9016D91E2
:103470007C9111976C5071096B30710598F412961C
:103480006D917C9113976E5171096731710508F444
:103490008AC012966D917C916950710969307105ED
:1034A00008F4B0C08091DD04883508F4BAC0828188
:1034B0009381855891098B35910508F0B2C08481BC
:1034C0009581825491098E9708F0ABC08F01045CFE
:1034D0001F4F8DE190E030E020E04091DD0444504A
:1034E000550B8417950714F5A80142505109DA01CC
:1034F0004D915C91495051094830510508F091C0F7
:10350000BC016F5F7F4FD8014D915C91119747507F
:1035100051094730510508F47AC04D915C914851EA
:1035200051094231510508F479C0CB0101979595B5
:1035300087959093E4028093E3028A970CF471C01C
:10354000C901330FAA0BBB0B8093DF029093E002FB
:10355000A093E102B093E20289E090E0AFCAD50106
:10356000C401880F991FAA1FBB1F4C015D016894FD
:1035700080F82C5F3F4F6217730709F03BCF20E2C2
:1035800030E03093E4022093E3028092DF029092D5
:10359000E002A092E102B092E202E4CE880C991C13
:1035A000AA1CBB1CE6CFD501C401880F991FAA1F16
:1035B000BB1F4C015D01689480F84E5F5F4F2C5F2C
:1035C0003F4F4534510509F051CF9F0126573F4FDA
:1035D000D9012D913C912C5031092B30310508F047
:1035E00061CF20E230E03093E4022093E302809246
:1035F000DF029092E002A092E102B092E20288E043
:1036000090E05CCA880C991CAA1CBB1CD6CF220F68
:10361000331F216002960C5F1F4F5FCF220F331FB5
:10362000F9CF8091DD04803279F58281938106970C
:10363000069750F5848195810997099728F59F0190
:103640002A5F3F4FBF01625C7F4F812C912C540158
:10365000D9014D915C911197465051094630510561
:1036600098F412964D915C91139749515109433149
:10367000510508F475C012964D915C91495051095D
:103680004930510508F48DC02091E7023091E802DD
:103690003F872E87263031050CF499C08F010A5FD1
:1036A0001F4F93E0292E312C25ECC22E2DE9D22E6E
:1036B0002CE1E22E21E8F22E4E855F852416350698
:1036C0000CF074C0D8016D917C91F8013497A08002
:1036D000B18090E080E00E946D282B013C01B50193
:1036E00090E080E00E946D284B015C012DEC3CECE9
:1036F0004CE45FE30E941F299B01AC01C301B201AE
:103700000E94C027F0E0E0E087FD14C02DEC3CEC07
:103710004CE45FE3C301B2010E941F299B01AC018D
:10372000C501B4010E94C027E2E0F0E087FD02C0BD
:10373000E1E0F0E0A701960163E971E080E091E04B
:103740000E948C296F01FF0FEE08FF08C626D726BE
:10375000E826F926BFEF2B1A3B0A0E5F1F4FACCFAE
:10376000D501C401880F991FAA1FBB1F4C015D0121
:10377000689480F82C5F3F4F6217730709F068CF99
:103780002EE030E03093E4022093E3028092DF02E7
:103790009092E002A092E102B092E2028FE090E00B
:1037A0008DC9880C991CAA1CBB1CE4CFC092DF02F7
:1037B000D092E002E092E102F092E20280E290E038
:1037C0009093E4028093E3028FEF9FEF77C9E2E0EA
:1037D000E093D9041092DD042FB7F8948091D302BE
:1037E0009091D402A091D502B091D6022FBF8C1532
:1037F0009D05AE05BF0508F418C964C9F89482E0B8
:103800008093B0008093B10094E69093B30010923F
:10381000B2008093700078948093D9041092DD04F4
:103820008091DA0460E00E9426020C94770EDA019F
:1038300013962C911397CC90D12CF12CE12C31E1E3
:10384000CC0CDD1CEE1CFF1C3A95D1F711968C9127
:1038500090E0B0E0A0E04AE0880F991FAA1FBB1FCC
:103860004A95D1F7C82AD92AEA2AFB2AF801828187
:1038700090E0B0E0A0E053E0880F991FAA1FBB1FA3
:103880005A95D1F7C82AD92AEA2AFB2A822F90E032
:10389000B0E0A0E064E0B695A795979587956A9506
:1038A000D1F7C82AD92AEA2AFB2A122F1F7073E0FF
:1038B000A72EB12C09E0E8EC2E2EF2E43F2E1111D8
:1038C0004DC01092700061E083E00E94260260E02B
:1038D00083E00E94F80181E08093B0000093B10082
:1038E0002092B3003092B40080E699E00E94380440
:1038F00088E592E00E942A0498E1892E912C412CBF
:10390000512C20E8622E712CD701C601842195210B
:10391000A621B721892B8A2B8B2BE9F080EB94E031
:103920000E94380488E592E00E942A047694679405
:1039300057944794F1E08F1A910831F768E270E0EC
:1039400080E090E00E94A70251E0A51AB10809F0BA
:10395000B6CF0C94770E88E592E0E2CF113071F784
:103960001092700061E083E00E94260260E083E034
:103970000E94F8011093B0000093B1002EED209347
:10398000B3003AE43093B40089E793E00E9438042E
:1039900089E793E00E942A0489E793E00E943804B3
:1039A000A8E18A2E912C412C512CB0E86B2E712C61
:1039B000D701C60184219521A621B721892B8A2B05
:1039C0008B2BB1F089E793E00E942A0489E793E00A
:1039D0000E943804769467945794479441E0841A7F
:1039E000910831F78091B0008F7D8093B000A6CF11
:1039F00089E793E00E94380489E793E00E942A0453
:103A0000E9CFDA012C91822F90E095958795182FB8
:103A10001F732170322E19821A821B821C821D8212
:103A200062E0812F0E94260261E0812F0E94F8014E
:103A30006AEF70E080E090E00E94A70261E0812FD1
:103A40000E94260260E0812F0E94F80164E170E08C
:103A500080E090E00E94A70261E0812F0E94F801BF
:103A60008BE990E00197F1F762E0812F0E94260236
:103A700083E290E00197F1F7E1E1EE2EE7E2FE2E1E
:103A8000812F0E94CF01892B31F4B1E0EB1AF108AC
:103A9000B9F701E00FC061E1E62E67E2F62E812F53
:103AA0000E94CF01019709F068C0E1E0EE1AF10829
:103AB000B1F702E038E2C32ED12CE12C47E0F42E1E
:103AC00088248394912C01110AC021E1A22E27E2BF
:103AD000B22E812F0E94CF01892B09F450C00E9481
:103AE00082022B013C0191E1A92E97E2B92E00231D
:103AF00009F44CC00E94820264197509860997096D
:103B00006F3171058105910508F04CC0F1105AC064
:103B1000E39487E0F82E31E0C31AD108A1F6F980CA
:103B20009B818F2D890F2A81820F2C81820F2D81FD
:103B300028134AC0011148C03110F92E64E170E029
:103B400080E090E00E94A70280EF90E00E94D20304
:103B50008FEC90E00E94D2038F2D869590E00E941A
:103B6000D2038F2D817090E00E94D203812F90E0CC
:103B7000880F991F83290C94B71200E09BCFF1E0C6
:103B8000AF1AB10809F0A5CF03E0A9CF812F0E9499
:103B9000CF01019709F0AECF21E0A21AB108B1F729
:103BA00004E0A8CFE1E0F0E0EC0FFD1FEE0DF11D09
:103BB000808194010F2C01C0220F0A94EAF7822B16
:103BC0008083A4CFFA94A7CFFF24FA94B7CFDA0169
:103BD000BC901196CC9000913402109135020115E1
:103BE000110589F0F801818592850E94A82AD801E3
:103BF00016968D919C9197FD03C060E00E9426026D
:103C0000C8010E94A82AEB2CF12CC7010297429709
:103C100010F00C94770E86E190E00E940C2A8C0143
:103C20008C2C912CFC01118210861786108A118A27
:103C3000128A81E086878387148692E09587808345
:103C4000B3E0CB9E60011124D582C482C6010E94DC
:103C50000C2AD8011A969C938E931997009709F411
:103C600044C0A60170E060E00E94312BF80193820D
:103C70008282F801F782E6828181882341F061E047
:103C80008B2D0E94260260E08B2D0E94F801F70127
:103C9000E656FF4FE491F0E0EE0FFF1FEE58FF4FA6
:103CA00085919491D80154969C938E935397F701E4
:103CB000E255FF4FE4915596EC93559710933502DA
:103CC0000093340216968D919C9197FD08C061E097
:103CD0000E94260260E0F80186810E94F80181E0DE
:103CE000D80111968C930C94770E15961C921E9207
:103CF000149713961C921E921297BBCFF901E81BE2
:103D0000F90BCF012E173F0711F00C94D60F90E05E
:103D100080E00C94D60F880F991F880F991F820F8F
:103D2000931FFC01E50FF11D10820C941B10908174
:103D3000982B9C879081809589238B878B858A8798
:103D400088E089875C856B854D8539852A858981E1
:103D50009A81D801508347FD252F00C000C02083E1
:103D600000C000C000C000C000C060830000262F5B
:103D70003A9541F0441F000000C000C000C000C0E0
:103D800000C0E8CF38E04D9100C0608300C00197CB
:103D900009F7D7015496FC93EE9353974D873987D3
:103DA0002A870C949D101F920F920FB60F92112428
:103DB0002F933F938F939F93AF93BF938091D302A1
:103DC0009091D402A091D502B091D6023091D20246
:103DD00023E0230F2D3758F50196A11DB11D209327
:103DE000D2028093D3029093D402A093D502B093D1
:103DF000D6028091D7029091D802A091D902B091B9
:103E0000DA020196A11DB11D8093D7029093D802CA
:103E1000A093D902B093DA02BF91AF919F918F9195
:103E20003F912F910F900FBE0F901F90189526E88D
:103E3000230F0296A11DB11DD2CF1F920F920FB674
:103E40000F9211242F933F934F935F936F937F9320
:103E50008F939F93AF93BF93EF93FF938BE693E082
:103E60000E945A03FF91EF91BF91AF919F918F9163
:103E70007F916F915F914F913F912F910F900FBE66
:103E80000F901F9018951F920F920FB60F9211244A
:103E90002F938F939F93EF93FF93E0917B03F09188
:103EA0007C038081E0918103F091820382FD1BC03D
:103EB0009081809184038F5F8F7320918503821797
:103EC00041F0E0918403F0E0E559FC4F958F809339
:103ED0008403FF91EF919F918F912F910F900FBECF
:103EE0000F901F9018958081F4CF1F920F920FB6FC
:103EF0000F9211240F900FBE0F901F9018951F92D4
:103F00000F920FB60F9211242F933F934F935F930D
:103F10006F937F938F939F93AF93BF93EF93FF9391
:103F20008091DA040E94CF012091DE043091DF04F9
:103F30002F5F3F4F3093DF042093DE049091DD0428
:103F4000953618F096E09093D9049091D904943066
:103F500009F466C0B8F49230F1F0933009F444C02B
:103F60009091DC04992309F46BC081117AC080918F
:103F7000DB04882309F463C08091DB0461E00E94C4
:103F8000F8015EC0953009F457C0963049F791E0CA
:103F90009093AA054FC08111E3CF2091DE043091A8
:103FA000DF042436310528F41092DF041092DE0479
:103FB000D7CF1092AA051092DD04E091DD0491E0C4
:103FC0009E0F9093DD04F0E02091DE043091DF0439
:103FD000EE0FFF1FE752FB4F308727831092DF045D
:103FE0001092DE0493E019C0813009F0B9CFE0915E
:103FF000DD0491E09E0F9093DD04F0E02091DE045B
:104000003091DF04EE0FFF1FE752FB4F308727830D
:104010001092DF041092DE0494E09093D904A0CFB4
:10402000882359F22091DE043091DF0425363105D2
:1040300008F496CF95E0F1CF811192CFB5CF2D9AAC
:10404000FF91EF91BF91AF919F918F917F916F9170
:104050005F914F913F912F910F900FBE0F901F9046
:1040600018958091DB04882321F08091DB0460E0C7
:1040700086CF2D98E5CF1F920F920FB60F92112485
:104080002F933F934F935F936F937F938F939F9360
:10409000AF93BF93EF93FF938091B900887F8036F1
:1040A00009F44AC0F0F5883209F4A7C018F5803148
:1040B00009F49BC0B8F4882309F4F9C0883009F4E6
:1040C00094C0FF91EF91BF91AF919F918F917F919C
:1040D0006F915F914F913F912F910F900FBE0F9075
:1040E0001F901895883109F488C0803251F7809369
:1040F0003F0314C0803409F49DC040F48033B9F309
:104100008833F9F680933F0385ECB0C0803509F41D
:1041100085C0883509F496C0883499F60E940F0E40
:10412000D0CF883909F48CC038F5883729F050F49D
:10413000883611F0803729F683E08093410310928E
:10414000970257C0883809F47BC0803919F080384D
:1041500009F0B7CF80919702803208F071C0E091EA
:10416000970281E08E0F809397028091BB00F0E070
:10417000E958FD4F80833DC0803B39F0E0F4803A40
:1041800009F479C0883A09F09CCF84E08093410318
:104190001092760210927502E0919A02F0919B02C1
:1041A00009958091750281110FC081E0809375029D
:1041B0001092550209C0803C09F4A6CF883C09F44E
:1041C000A3CF883B09F07DCFE091760281E08E0F8E
:1041D00080937602F0E0EB5AFD4F80818093BB0024
:1041E000909176028091750229C080911C03809382
:1041F000BB0085EC8093BC0064CF90913E0380911E
:104200003D03981758F5E0913E0381E08E0F8093AF
:104210003E03F0E0E35EFC4F8081E9CFE0913E0396
:1042200081E08E0F80933E038091BB00F0E0E35E5F
:10423000FC4F808390913E0380913D039817C8F214
:1042400085E8D8CFE0913E0381E08E0F80933E0356
:104250008091BB00F0E0E35EFC4F808380914003DF
:1042600081115CCF81E080931B0384EA8093BC00C2
:104270001092410326CF85EC8093BC00109241033D
:1042800080919702803230F4E0919702F0E0E95893
:10429000FD4F10826091970270E0E0919C02F091D6
:1042A0009D0287E792E00995109297020ACF10923B
:1042B0003F0334CF1F920F920FB60F9211242F930A
:1042C0003F934F935F936F937F938F939F93AF939E
:1042D000BF93CF93DF93EF93FF9380915302C091ED
:1042E000D804D0E087FF24C010928500109284008B
:1042F000809153028F5F8093530280915302082E66
:10430000000C990B8C179D0724F4809153028C307C
:10431000C4F18091840090918500049680349C497A
:1043200008F47AC08091840090918500049676C04C
:1043300080915302082E000C990B8C179D07C4F630
:10434000E09153028E2FEE0F990BFC01EE0FFF1F31
:10435000E80FF91FEC54FB4F808186FFC9CFE09135
:1043600053028E2FEE0F990BFC01EE0FFF1FE80F8B
:10437000F91FEC54FB4F808160E08F730E94F801BD
:10438000B7CF2091840030918500E09153028E2FA9
:10439000EE0F990BFC01EE0FFF1FE80FF91FEC5415
:1043A000FB4F81819281820F931F909389008093AC
:1043B0008800E09153028E2FEE0F990BFC01EE0F57
:1043C000FF1FE80FF91FEC54FB4F808186FF11C0DF
:1043D000E09153028E2FEE0F990BFC01EE0FFF1FA1
:1043E000E80FF91FEC54FB4F808161E08F730E944E
:1043F000F801FF91EF91DF91CF91BF91AF919F9124
:104400008F917F916F915F914F913F912F910F907D
:104410000FBE0F901F90189580E49CE9909389003F
:10442000809388008FEF80935302E3CFCF92DF9287
:10443000EF92FF920F931F93E82FF92F05C00150C1
:1044400011092109310961F1908196239417B9F37B
:1044500005C0015011092109310911F190819623FC
:104460009413F7CFC12CD12CE12CF12C0AC08FEF83
:10447000C81AD80AE80AF80A0C151D052E053F05CA
:1044800079F080818623841791F36C2D7D2D8E2DFC
:104490009F2D1F910F91FF90EF90DF90CF90089587
:1044A00060E070E080E090E01F910F91FF90EF904E
:1044B000DF90CF900895CF92DF92EF92FF92CF934B
:1044C000DF93EC01072E000C880B990B0E946F28DC
:1044D0006B017C0120E030E040E45FE30E941F2993
:1044E00020E030E048E452E40E94C5270E943728CB
:1044F000C617D707D4F020E030E040EA5FE3C701F9
:10450000B6010E941F2920E030E048E452E40E94F6
:10451000C52720E030E040E85FE30E9454270E9476
:10452000372821E06C177D070CF420E0822F90E003
:10453000DF91CF91FF90EF90DF90CF9008958F9211
:104540009F92AF92BF92CF92DF92EF92FF920F9322
:104550001F93CF93DF93FC0120813181E091E7022B
:10456000F091E80201E010E02E173F070CF045C083
:10457000D901AA0FBB1FE091E502F091E602EA0F14
:10458000FB1FA080B1808901009510950170112753
:1045900020FD27C02CE93FEFEA016B017C014901B6
:1045A000840E951EB401C5010E945B2221E030E01B
:1045B000892BD1F48C0E9D1EB401C5010E945B2293
:1045C00022E030E0892B81F4BE01680D791DC50120
:1045D0000E945B2223E030E0892B31F40FEF1FEFC4
:1045E0000CC024E630E0D8CFF6018081918101969D
:1045F0008217930784F491838083C801DF91CF9160
:104600001F910F91FF90EF90DF90CF90BF90AF90F0
:104610009F908F90089511821082F701808191817F
:104620000196E9CFCF92DF92EF92FF9210926E0344
:1046300010926D0368EEC62E63E0D62EE12CF12CAD
:10464000C0926F03D0927003E0927103F0927203F4
:104650008DE091E090936C0380936B0385EC90E088
:10466000909378038093770384EC90E090937A039F
:104670008093790380EC90E090937C0380937B039C
:1046800081EC90E090937E0380937D0382EC90E038
:104690009093800380937F0386EC90E09093820355
:1046A00080938103109284031092850310928603F5
:1046B000109287038FE191E090930904809308049E
:1046C00010920A0410920B0410920C0410920D0424
:1046D0001092A70410921004109212041092110468
:1046E0000E948B011092AB041092AA04C092AC04F9
:1046F000D092AD04E092AE04F092AF0485E291E076
:104700009093A9048093A8048BE08093DA0410921C
:10471000DC04EBEAF5E02FEC35E04FEF68EB7BE0F3
:104720008091D8048C30D0F491E0980F9093D80405
:10473000808390E0DC01AA0FBB1FA80FB91FAC5407
:10474000BB4F12967C936E93119733962E173F07AB
:1047500039F7FF90EF90DF90CF9008954083F5CF29
:10476000789484B5826084BD84B5816084BD85B54C
:10477000826085BD85B5816085BD80916E00816058
:1047800080936E00109281008091810082608093FE
:104790008100809181008160809381008091800000
:1047A0008160809380008091B10084608093B1002B
:1047B0008091B00081608093B00080917A00846025
:1047C00080937A0080917A00826080937A00809151
:1047D0007A00816080937A0080917A00806880936B
:1047E0007A001092C10083E180931004809111043B
:1047F000909112040E94A82AC0911004D0E0CE012A
:1048000001960E940C2A9093120480931104FC01DB
:10481000EC0FFD1F108212E0DC011C9325E01196C5
:104820002C93AE014250510965EF71E002960E944F
:10483000382B80E698E0909396048093950484EB5F
:1048400097E0909398048093970487E897E090937B
:104850009A048093990488ED99E090939C04809346
:104860009B0485E49CE090939E0480939D048EE7D6
:1048700099E09093A00480939F0487E49EE0909336
:10488000A6048093A5048DE99DE09093A2048093F3
:10489000A104E0917B03F0917C031083E0917B0302
:1048A000F0917C031082E0917703F09178031082FD
:1048B000E0917903F0917A0380E180831092830381
:1048C000E0917F03F091800386E08083E0917D0397
:1048D000F0917E03808180618083E0917D03F0917F
:1048E0007E03808188608083E0917D03F0917E0368
:1048F000808180688083E0917D03F0917E038081D8
:104900008F7D80838BE693E090930F0480930E0459
:104910008091A70481114FC061E08DE00E942602C2
:1049200062ED70E080E090E00E94A70261E08DE01F
:104930000E94F80168E270E080E090E00E94A70227
:1049400060E08DE00E94F80162ED70E080E090E0B0
:104950000E94A70261E08DE00E94F80168E270E029
:1049600080E090E00E94A70260E08DE00E94F801E4
:104970006AEF70E080E090E00E94A702C5E062ED7F
:1049800070E080E090E00E94A70261E08DE00E946C
:10499000F80168E270E080E090E00E94A70260E029
:1049A0008DE00E94F801C15051F76DE770E080E0A2
:1049B00090E00E94A7020E945A0180911004811188
:1049C0000E9414010E949D0D1092EC021092EB02C5
:1049D0001092480310926A030E9469048AED92E0E3
:1049E00090939B0280939A028BED92E090939D02AC
:1049F00080939C0260EF85E50E94E6066BEF80E005
:104A00000E94E6060E946A0B25E0F22E00E010E00C
:104A10007724739432E0E32E8091A102882349F039
:104A200069B180919E0268236C7F40E080E00E9423
:104A300093098091A202882379F063B186B16F73E4
:104A4000B0E48B9FC0011124682B80919F026823E2
:104A500040E081E00E9493098091A302882359F0ED
:104A600066B18091A0028F7066956695682340E0DC
:104A700082E00E94930980910E0490910F04EC0152
:104A8000E881F9810084F185E02D0995892B09F4ED
:104A900027C180910E0490910F04DC01ED91FC91EF
:104AA0000284F385E02D09958F3F980721F3382F75
:104AB00020915604222309F467C0873F09F055C0AE
:104AC0001092560480911604813751F0893709F00D
:104AD0003EC080911004882371F20E941401CBCF54
:104AE000E091A304F091A404309729F28091570437
:104AF00090915804DC011197B7FDDC01B595A7959D
:104B00007A2F4EE054E09A0190E04E5F5F4F2F5FA6
:104B10003F4F971770F4EA016F81E9016F83EA0153
:104B20008885879588278795860FE9018F839F5F02
:104B3000ECCFBB27A25FBB4F17968C9117978823AA
:104B400011F018961C9286E194E0099594CFE091BB
:104B5000A504F091A604309709F48DCF6091570415
:104B6000615047E154E0099586CF20915704309178
:104B70005804F901E25FFB4F80872F5F3F4F30936E
:104B800058042093570477CF20911304222309F46B
:104B900066C087FD64C09FEF920F90931304E92FC6
:104BA000F0E0E25FFB4F8087911165CF80911404A4
:104BB000882309F460CF803D09F446C060F4803951
:104BC00021F1E0919904F0919A04803C09F440C0ED
:104BD0001092140450CF843F29F1853F81F1803E2B
:104BE000B9F7E0919504F0919604309789F36091BC
:104BF0001604D0E86D9FC001112460911704680F5E
:104C0000792F711D8091150418C0E0919704F091DF
:104C100098043097E9F26091160420E8629FC00181
:104C20001124EBCFE0919D04F0919E046091160455
:104C300070E080911704309759F20995C9CFE0913F
:104C40009F04F091A004F2CFE0919B04F0919C04AA
:104C5000309709F4BDCF6091160470E0D3CF303F98
:104C6000B8F4282F207F30E08F7080931504203F08
:104C7000310561F1BCF4203C310529F164F420399F
:104C8000310509F0F8CEE092130420931404F3CE1A
:104C90009C013327ECCF203D3105A9F0203E3105A2
:104CA00091F3E9CE293F3105C1F034F4C901845FA5
:104CB0009109029740F3DFCE2F3F310509F0DBCE9B
:104CC0000E948B01D8CE70921304DFCF70925604ED
:104CD0001092580410925704CECE0E945A01CBCEA7
:104CE0008FB7F8948090D3029090D402A090D50210
:104CF000B090D6028FBF8091CE029091CF02A0914A
:104D0000D002B091D102409101015091020170E0B6
:104D100060E0881A990AAA0ABB0A481559056A056B
:104D20007B0508F051C0840F951FA61FB71F809305
:104D3000CE029093CF02A093D002B093D1028EE026
:104D4000C82E84E0D82EC2EFC630C8F4F601E55B69
:104D5000FF4F8081823099F48091CC029091CD02F6
:104D60000C2E02C0959587950A94E2F780FF07C044
:104D70008C2F0E946202BC018C2F0E94B300CF5F77
:104D80008FEFC81AD80AC630F9F68091000187FD66
:104D90001BC0C0E02C2F30E080910001082E000CD9
:104DA000990B8217930784F0F29EF001F39EF00DA9
:104DB0001124EC55FD4F61817281248143818081F2
:104DC0000E94FF0ACF5FE6CF0115110509F424CE3A
:104DD0000E944603882309F41FCE0E9400001CCEC7
:104DE000052E97FB1EF400940E94072757FD07D05D
:104DF0000E94222707FC03D04EF40C9407275095FD
:104E00004095309521953F4F4F4F5F4F08959095B6
:104E10008095709561957F4F8F4F9F4F08950E94A9
:104E20004427A59F900DB49F900DA49F800D911DC8
:104E300011240895B7FF0C940F270E940F27821B9F
:104E4000930B0895A1E21A2EAA1BBB1BFD010DC0F6
:104E5000AA1FBB1FEE1FFF1FA217B307E407F5072A
:104E600020F0A21BB30BE40BF50B661F771F881F06
:104E7000991F1A9469F760957095809590959B019C
:104E8000AC01BD01CF010895A29FB001B39FC00145
:104E9000A39F700D811D1124911DB29F700D811D66
:104EA0001124911D08955058BB27AA270E946B27F3
:104EB0000C94E5280E94D72838F00E94DE2820F0C4
:104EC00039F49F3F19F426F40C94D4280EF4E0959D
:104ED000E7FB0C94CE28E92F0E94F62858F3BA1766
:104EE000620773078407950720F079F4A6F50C9400
:104EF00018290EF4E0950B2EBA2FA02D0B01B90145
:104F000090010C01CA01A0011124FF27591B99F03F
:104F1000593F50F4503E68F11A16F040A22F232F4B
:104F2000342F4427585FF3CF469537952795A7959B
:104F3000F0405395C9F77EF41F16BA0B620B730B42
:104F4000840BBAF09150A1F0FF0FBB1F661F771FB3
:104F5000881FC2F70EC0BA0F621F731F841F48F468
:104F6000879577956795B795F7959E3F08F0B0CFF1
:104F70009395880F08F09927EE0F979587950895D8
:104F80000E94AA2808F481E008950E94D9270C9471
:104F9000E5280E94DE2858F00E94D72840F029F426
:104FA0005F3F29F00C94CE2851110C9419290C94D0
:104FB000D4280E94F62868F39923B1F3552391F37E
:104FC000951B550BBB27AA2762177307840738F078
:104FD0009F5F5F4F220F331F441FAA1FA9F335D0D5
:104FE0000E2E3AF0E0E832D091505040E695001C89
:104FF000CAF72BD0FE2F29D0660F771F881FBB1F43
:10500000261737074807AB07B0E809F0BB0B802D20
:10501000BF01FF2793585F4F3AF09E3F510578F04C
:105020000C94CE280C9419295F3FE4F3983ED4F3F6
:10503000869577956795B795F7959F5FC9F7880F20
:10504000911D9695879597F90895E1E0660F771F72
:10505000881FBB1F621773078407BA0720F0621B03
:10506000730B840BBA0BEE1F88F7E09508950E942E
:105070003E286894B1110C94192908950E94FE28C5
:1050800088F09F5798F0B92F9927B751B0F0E1F009
:10509000660F771F881F991F1AF0BA95C9F714C0B9
:1050A000B13091F00E941829B1E008950C941829AC
:1050B000672F782F8827B85F39F0B93FCCF38695F2
:1050C00077956795B395D9F73EF49095809570954F
:1050D00061957F4F8F4F9F4F0895E89409C097FBCC
:1050E0003EF490958095709561957F4F8F4F9F4FBF
:1050F0009923A9F0F92F96E9BB279395F695879503
:1051000077956795B795F111F8CFFAF4BB0F11F4C5
:1051100060FF1BC06F5F7F4F8F4F9F4F16C088236C
:1051200011F096E911C0772321F09EE8872F762FA2
:1051300005C0662371F096E8862F70E060E02AF0E3
:105140009A95660F771F881FDAF7880F96958795CF
:1051500097F90895990F0008550FAA0BE0E8FEEFA4
:1051600016161706E807F907C0F012161306E4072B
:10517000F50798F0621B730B840B950B39F40A2624
:1051800061F0232B242B252B21F408950A2609F402
:10519000A140A6958FEF811D811D089597F99F6706
:1051A00080E870E060E008959FEF80EC08950024AF
:1051B0000A941616170618060906089500240A947C
:1051C00012161306140605060895092E0394000C02
:1051D00011F4882352F0BB0F40F4BF2B11F460FF91
:1051E00004C06F5F7F4F8F4F9F4F089557FD9058BA
:1051F000440F551F59F05F3F71F04795880F97FB9B
:10520000991F61F09F3F79F0879508951216130654
:105210001406551FF2CF4695F1DF08C01616170683
:105220001806991FF1CF86957105610508940895B8
:10523000E894BB2766277727CB0197F908950E944A
:1052400032290C94E5280E94D72838F00E94DE28E5
:1052500020F0952311F00C94CE280C94D42811241E
:105260000C9419290E94F62870F3959FC1F3950FAD
:1052700050E0551F629FF001729FBB27F00DB11DDA
:10528000639FAA27F00DB11DAA1F649F6627B00D6A
:10529000A11D661F829F2227B00DA11D621F739F53
:1052A000B00DA11D621F839FA00D611D221F749F61
:1052B0003327A00D611D231F849F600D211D822FA8
:1052C000762F6A2F11249F5750409AF0F1F08823CF
:1052D0004AF0EE0FFF1FBB1F661F771F881F9150FC
:1052E0005040A9F79E3F510580F00C94CE280C94B5
:1052F00019295F3FE4F3983ED4F386957795679537
:10530000B795F795E7959F5FC1F7FE2B880F911D25
:105310009695879597F90895DB018F939F930E9447
:105320000F27BF91AF91A29F800D911DA39F900D5C
:10533000B29F900D11240895991B79E004C0991F24
:10534000961708F0961B881F7A95C9F780950895DF
:1053500097FB072E16F4009407D077FD09D00E9422
:10536000F82907FC05D03EF4909581959F4F08954C
:10537000709561957F4F0895EE0FFF1F0590F49192
:10538000E02D0994002E083090F0982F872F762F6B
:10539000652F542F432F322F22270850F4CF220F8E
:1053A000331F441F551F661F771F881F991F0A95BB
:1053B000B2F7002D089597FD1094002E083098F054
:1053C0000850232F342F452F562F672F782F892FE2
:1053D000912DF4CF15949795879577956795579567
:1053E0004795379527950A95AAF71124002D08951A
:1053F000AA1BBB1B51E107C0AA1FBB1FA617B707FB
:1054000010F0A61BB70B881F991F5A95A9F7809516
:105410009095BC01CD0108950F931F93CF93DF9317
:105420008230910510F482E090E0E091D105F09196
:10543000D20530E020E0B0E0A0E0309799F42115EB
:10544000310509F44AC0281B390B24303105D8F541
:105450008A819B816115710589F1FB0193838283A8
:10546000FE0111C040815181028113814817590703
:10547000E0F04817590799F4109761F012960C93D1
:10548000129713961C933296CF01DF91CF911F9103
:105490000F9108950093D1051093D205F4CF2115F3
:1054A000310551F04217530738F0A901DB019A0189
:1054B000BD01DF01F801C1CFEF01F9CF9093D20513
:1054C0008093D105CDCFFE01E20FF31F819391931D
:1054D0002250310939832883D7CF2091CF053091CD
:1054E000D005232B41F42091050130910601309322
:1054F000D0052093CF05209103013091040121159F
:10550000310541F42DB73EB7409107015091080194
:10551000241B350BE091CF05F091D005E217F3077E
:10552000A0F42E1B3F0B2817390778F0AC014E5F13
:105530005F4F2417350748F04E0F5F1F5093D0057B
:105540004093CF05819391939FCFF0E0E0E09CCF13
:10555000CF93DF930097E9F0FC0132971382128218
:10556000A091D105B091D205ED0130E020E0109777
:10557000A1F420813181820F931F2091CF053091BA
:10558000D0052817390709F061C0F093D005E093E2
:10559000CF05DF91CF910895EA01CE17DF07E8F537
:1055A0004A815B819E0141155105B1F7E901FB83F9
:1055B000EA8349915991C40FD51FEC17FD0761F497
:1055C000808191810296840F951FE90199838883D8
:1055D000828193819B838A83F0E0E0E012968D9133
:1055E0009C9113970097B9F52D913C911197CD019E
:1055F0000296820F931F2091CF053091D005281776
:10560000390739F6309751F51092D2051092D1052D
:10561000B093D005A093CF05BCCFD383C283408184
:105620005181840F951FC817D90761F44E5F5F4FF2
:1056300088819981480F591F518340838A819B81BA
:10564000938382832115310509F0B0CFF093D20501
:10565000E093D1059ECFFD01DC01C0CF1382128201
:10566000D7CFDC0101C06D9341505040E0F7089561
:10567000FB01DC014150504048F001900D920020A8
:10568000C9F701C01D9241505040E0F70895F894C9
:02569000FFCF4A
:10569200FF13000000D3058000000000007C03DC43
:1056A200020903D7033A0318032C0300000000FB8E
:1056B2000B00000000B7068A06050767060D017792
:1056C2000668064D617820736572766F7320617487
:1056D200746163686564004932433A20546F6F20F5
:1056E2006D616E7920627974657320726563656994
:1056F200766564004932433A20546F6F20666577BD
:1057020020627974657320726563656976656400E9
:10571200556E6B6E6F776E2070696E206D6F64656B
:105722000031302D6269742061646472657373693B
:105732006E67206E6F7420737570706F727465641B
:1057420000746F6F206D616E792071756572696585
:1057520073002F686F6D652F6A6775696C6C6532AF
:105762002F6769742F5341352F7361356669726DE6
:105772006174612F76362F5341354669726D6174BB
:10578200615F69722F5341354669726D6174615F61
:0857920069722E696E6F0000C0
:00000001FF
