:100000000C9463000C948B000C948B000C946C1A71
:100010000C946C1A0C946C1A0C948B000C94B819F8
:100020000C948B000C948B000C948B000C94951BFF
:100030000C948B000C948B000C948B000C948B0014
:100040000C946E190C948B000C943A1A0C94141A9C
:100050000C948B000C948B000C948B000C948B00F4
:100060000C94761A0C948B000200000000240027E8
:10007000002A0000000000250028002B00000000DE
:100080000800020100000304070000000000000057
:1000900000000000002300260029000404040404DA
:1000A0000404040202020202020303030303030125
:1000B00002040810204080010204081020010204FC
:1000C00008102000961C11241FBECFEFD8E0DEBF21
:1000D000CDBF12E0A0E0B1E0E2E9F4E402C0059097
:1000E0000D92AC30B107D9F725E0ACE0B2E001C029
:1000F0001D92A630B207E1F710E0C3E6D0E004C0DD
:100100002197FE010E94F220C236D107C9F70E9452
:100110002F1D0C9447220C9400000F931F93CF9334
:10012000DF93EC0103E114E0D8018D919C916C2FD9
:100130006F77DC01ED91FC910190F081E02D099544
:10014000F80180819181CC0FCD2FCC1FDD0B6C2F5E
:100150006F77DC01ED91FC910190F081E02DDF9152
:10016000CF911F910F910994CF93DF93EB01A09151
:100170001304B09114048F70682F606EED91FC91A0
:1001800011970190F081E02DCD010995CE01DF910D
:10019000CF910C948D008091130490911404DC0194
:1001A000ED91FC910190F081E02D67EF0994809131
:1001B000130490911404DC01ED91FC910190F08105
:1001C000E02D60EF0994FF920F931F93CF93DF937D
:1001D000C82F062FF42E152F0E94D70080911304EC
:1001E00090911404DC01ED91FC910190F081E02DDF
:1001F0006C2F0995CF2DD12F0C0F1D2F111DC0175E
:10020000D10729F0899190E00E948D00F8CFDF910D
:10021000CF911F910F91FF900C94CB008091F00231
:100220009091F102891B990B0895CF93DF930E945F
:10023000D7008091130490911404DC01ED91FC919E
:100240000190F081E02D69E7099580911304909168
:100250001404A0911604B0911704EC01E881F9810F
:100260000190F081E02D6C9109958091130490919B
:100270001404A0911604B0911704EC01E881F981EF
:100280000190F081E02D11966C910995C2E080916A
:100290001504C81760F4E0911604F0911704EC0FF0
:1002A000F11D808190E00E948D00CF5FF0CFDF9143
:1002B000CF910C94CB00CF93DF93C3E1D4E088813E
:1002C0009981DC01ED91FC910190F081E02D69EFC5
:1002D000099588819981DC01ED91FC910190F08173
:1002E000E02D62E0099588819981DC01ED91FC9116
:1002F0000190F081E02D65E0DF91CF910994A0910C
:100300001304B0911404ED91FC9111970190F081C8
:10031000E02D682FCD010994109218041092190451
:1003200010921A04EBE1F4E0119284E0EB35F80747
:10033000D9F710925B0410925D0410925C04E09176
:10034000A604F091A704309709F00994089583302A
:1003500081F028F4813099F08230A9F00895873037
:10036000A9F08830C9F08430B1F4809180008F7D8D
:1003700003C0809180008F7780938000089584B5BA
:100380008F7784BD089584B58F7DFBCF8091B000B9
:100390008F778093B00008958091B0008F7DF9CF62
:1003A000CF93DF93282F30E0F901E358FF4F84917A
:1003B000F901E155FF4FD491F901E556FF4FC49182
:1003C000CC23A1F081110E94A701EC2FF0E0EE0FE9
:1003D000FF1FEF56FF4FA591B491EC91ED2381E003
:1003E00090E009F480E0DF91CF91089580E090E003
:1003F000FACF1F93CF93DF93282F30E0F901E35812
:10040000FF4F8491F901E155FF4FD491F901E55671
:10041000FF4FC491CC23A9F0162F81110E94A70190
:10042000EC2FF0E0EE0FFF1FED58FF4FA591B491B8
:100430008FB7F894EC91111108C0D095DE23DC93AE
:100440008FBFDF91CF911F910895DE2BF8CFCF930F
:10045000DF9390E0FC01E155FF4F249185569F4FBB
:10046000FC0184918823C9F090E0880F991FFC015A
:10047000E759FF4FA591B491FC01ED58FF4FC5918D
:10048000D49161110DC09FB7F8948C91209582236F
:100490008C938881282328839FBFDF91CF91089573
:1004A000623051F49FB7F8943C91822F809583235A
:1004B0008C93E8812E2BEFCF8FB7F894EC912E2BF5
:1004C0002C938FBFEACF8E3008F08E5087708064F7
:1004D00080937C0080917A00806480937A00809180
:1004E0007A0086FDFCCF8091780090917900089584
:1004F0008230910538F0880F991F880F991F059752
:100500000197F1F708953FB7F8948091EC0290912C
:10051000ED02A091EE02B091EF0226B5A89B05C0B6
:100520002F3F19F00196A11DB11D3FBFBA2FA92F72
:10053000982F8827BC01CD01620F711D811D911D6F
:1005400042E0660F771F881F991F4A95D1F70895DB
:100550008F929F92AF92BF92CF92DF92EF92FF92D3
:100560006B017C010E9483024B015C01C114D10428
:10057000E104F104B9F00E948302681979098A093B
:100580009B09683E73408105910580F321E0C21A02
:10059000D108E108F10888EE880E83E0981EA11CBE
:1005A000B11CE4CFFF90EF90DF90CF90BF90AF9061
:1005B0009F908F9008950895089590910001891358
:1005C0000BC0E8E6F0E0E4919FEF90930001E1308A
:1005D00049F028F0E23061F060E00C94F9011092EB
:1005E0006E00FACF90916F009D7F90936F00F4CFD3
:1005F000909170009D7F9093700091E09093B00077
:100600009091B100987F94609093B1001092B300E4
:10061000E3CF4F925F926F927F928F929F92AF92B1
:10062000BF92CF92DF92EF92FF920F931F93CF93DF
:10063000DF9300D000D01F92CDB7DEB78B01290128
:100640003A01909100018917C9F09F3F09F47EC0DB
:100650000F900F900F900F900F90DF91CF911F91FF
:100660000F91FF90EF90DF90CF90BF90AF909F9051
:100670008F907F906F905F904F900895E8E6F0E044
:1006800094919D8397FDE4CF61E00E9427028D81C4
:10069000882321F09D81923009F04AC14801B12C94
:1006A000A12C60E072E18AE790E0A50198010E9428
:1006B0006F2029833A834B835C8369017A0181E04F
:1006C000C81AD108E108F1089FEFC916D104E10466
:1006D000F10409F00CF401C160E472E48FE090E0F1
:1006E000A50198010E946F2069017A0181E0C81A72
:1006F000D108E108F1089D81923009F0A2C08FEF86
:10070000C816D104E104F10409F00CF4E6C160E973
:1007100070ED83E090E0A50198010E946F206901CF
:100720007A0191E0C91AD108E108F1088FEFC816E3
:10073000D104E104F10411F00CF07FC183E0909149
:10074000B100987F892B8093B100CFC080930001C6
:10075000E8E6F0E094919D839F3F09F479CF9130D2
:1007600041F150F0923009F446C09D8197FD70CF61
:1007700061E00E9427028ECF14BC15BC94B5926034
:1007800094BD95B5916095BD282F30E0F901E556EF
:10079000FF4FE491F0E0EE0FFF1FED58FF4F459142
:1007A0005491F901E155FF4FE491E0939F021D82BE
:1007B0006BCF109280001092810090918100986020
:1007C0009093810090918100916090938100282FF7
:1007D00030E0F901E556FF4FE491F0E0EE0FFF1F26
:1007E000ED58FF4F45915491F901E155FF4FE491C8
:1007F000E0939E0249CF1092B0001092B100909108
:10080000B00092609093B0009091B100916090938D
:10081000B100282F30E0F901E556FF4FE491F0E0F8
:10082000EE0FFF1FED58FF4F459154915093A902D1
:100830004093A802F901E155FF4FE491E093AA0229
:1008400023CF9FEFC916D104E104F10409F00CF4A1
:100850006DC068E478EE81E090E0A50198010E9407
:100860006F2069017A0181E0C81AD108E108F10816
:100870009D81992309F4FAC08FEFC816D104E104D1
:10088000F10411F00CF0FBC0EFC064E274EF80E003
:1008900090E0A50194010E946F2069017A0181E036
:1008A000C81AD108E108F10885E09FEFC916D10404
:1008B000E104F10409F008F442CF62E17AE780E054
:1008C00090E0A50194010E946F2069017A0181E006
:1008D000C81AD108E108F108E5C081E09D819111B5
:1008E0002ECF95B5987F892B85BD2FEF3FEFA901BE
:1008F000411451046104710409F043C09D81913099
:1009000009F45EC0923009F46DC09111A1CEC7BC4C
:100910002093A4023093A5024093A6025093A7020D
:1009200080916E00826080936E0092CE82E0D6CF7E
:10093000B12CA12C60E072E18AE790E0A50198015A
:100940000E946F2069017A0181E0C81AD108E1088C
:10095000F108C114D10491E0E906F10404F591E035
:100960008D81813011F680918100887F892B809361
:1009700081002FEF3FEFA90141145104610471047C
:10098000F9F0D801AA0FBB1FA30192010E948E208B
:1009900028EE33E040E050E00E94A120AFCF68E4B1
:1009A00078EE81E090E0A50198010E946F20690136
:1009B0007A0181E0C81AD108E108F10893E0D0CFAC
:1009C000D0928900C09288002093A0023093A102A7
:1009D0004093A2025093A30280916F0082608093A3
:1009E0006F0036CEC092B3002093AB023093AC02BE
:1009F0004093AD025093AE0280917000826080936C
:100A0000700026CE84E09FEFC916D104E104F10402
:100A100009F008F466CFC980DA80EB80FC808AE0B8
:100A2000F594E794D794C7948A95D1F781E0C81AD2
:100A3000D108E108F10885E054CF68E478EE81E060
:100A400090E0A50198010E946F2069017A0181E080
:100A5000C81AD108E108F1089FEFC916D104E104D2
:100A6000F10411F00CF011CF84E069CE83E09FEF28
:100A7000C916D104E104F10409F00CF432CF62E1AB
:100A80007AE780E090E0A50194010E946F2069015F
:100A90007A0181E0C81AD108E108F1089D81992303
:100AA00009F4B0CF86E09FEFC916D104E104F10448
:100AB00009F008F444CEC980DA80EB80FC809AE02B
:100AC000F594E794D794C7949A95D1F781E0C81A22
:100AD000D108E108F10887E032CE82E030CEAF9253
:100AE000BF92CF92DF92EF92FF920F931F93CF931B
:100AF000DF936C017B018B01040F151FEB015E017D
:100B0000AE18BF08C017D10759F06991D601ED9111
:100B1000FC910190F081E02DC6010995892B79F7B0
:100B2000C501DF91CF911F910F91FF90EF90DF9062
:100B3000CF90BF90AF900895FC01538D448D252F29
:100B400030E0842F90E0821B930B541710F0CF9667
:100B5000089501970895FC01918D828D981761F099
:100B6000A28DAE0FBF2FB11D5D968C91928D9F5FB0
:100B70009F73928F90E008958FEF9FEF0895FC018F
:100B8000918D828D981731F0828DE80FF11D858D42
:100B900090E008958FEF9FEF0895FC01918D228DD5
:100BA000892F90E0805C9F4F821B91098F7399275A
:100BB000089580E793E00E94CD0521E0892B09F498
:100BC00020E0822F089580E090E0892B29F00E9498
:100BD000D90581110C9400000895FC01A48DA80F83
:100BE000B92FB11DA35ABF4F2C91848D90E001966F
:100BF0008F739927848FA689B7892C93A089B1898F
:100C00008C91837080648C93938D848D981306C02F
:100C10000288F389E02D80818F7D80830895EF9293
:100C2000FF920F931F93CF93DF93EC0181E0888FA6
:100C30009B8D8C8D98131AC0E889F989808185FF76
:100C400015C09FB7F894EE89FF896083E889F98918
:100C500080818370806480839FBF81E090E0DF911A
:100C6000CF911F910F91FF90EF900895F62E0B8D6D
:100C700010E00F5F1F4F0F731127E02E8C8D8E1128
:100C80000CC00FB607FCFACFE889F989808185FF8F
:100C9000F5CFCE010E94ED05F1CFEB8DEC0FFD2FCE
:100CA000F11DE35AFF4FF0829FB7F8940B8FEA894A
:100CB000FB8980818062CFCF80E793E00C940F06A0
:100CC000682F80E793E00C940F06682F80E793E08D
:100CD0000C940F06CF93DF93EC01888D8823B9F035
:100CE000AA89BB89E889F9898C9185FD03C0808137
:100CF00086FD0DC00FB607FCF7CF8C9185FFF2CFB4
:100D0000808185FFEDCFCE010E94ED05E9CFDF9117
:100D1000CF91089520917902260F3327331F213276
:100D20003105ECF420914603FC0190E080E0243092
:100D300069F082E00895A09179022191AC01475AAF
:100D40005D4FA40FB52FB11D2C930196861798F314
:100D500080917902680F6093790280E0089581E0C4
:100D600008951092460381E080934503109220037A
:100D700061E082E10E94F90161E083E10E94F901F2
:100D8000E9EBF0E080818E7F808380818D7F80839E
:100D900088E48093B80085E48093BC000895CF93E5
:100DA000DF9391E0909358028823B9F0C091B80086
:100DB000D091BA008091BC008A7B8093BC0060E037
:100DC00082E10E94F90160E083E10E94F9010E9442
:100DD000B106D093BA00C093B800DF91CF910895C7
:100DE0008F929F92AF92BF92CF92DF92EF92FF923B
:100DF0000F931F93CF93DF93D0916F03D13208F0FD
:100E0000D7C0182FC0916E030E9483026B017C0132
:100E10008091460381116BC082E08093460310935A
:100E200045038FEF8093440310924303D093420312
:100E3000AEE4B3E0E2E2F3E080E0D81391C01092B8
:100E4000210380912103CC0FC82BC09321038091F3
:100E50002003813009F088C0109220030E94830291
:100E60006B017C01809121038093BB00809148033A
:100E700090914903A0914A03B0914B03892B8A2B8F
:100E80008B2BA1F00E94830200914803109149032B
:100E900020914A0330914B036C197D098E099F09FB
:100EA000061717072807390708F442C08091BC00CD
:100EB00083FDD8CF85EC8093BC000E9483026B0138
:100EC0007C0180914603823009F450C08091440334
:100ED0008F3F09F46FC080914403803209F46CC0E5
:100EE00080914403803309F469C084E026C0809176
:100EF000480390914903A0914A03B0914B03892B79
:100F00008A2B8B2B09F484CF0E94830280904803A4
:100F100090904903A0904A03B0904B036C197D094F
:100F20008E099F0986169706A806B90608F070CFA5
:100F3000809147030E94CF0685E010924D031092E6
:100F40006F0310924C03DF91CF911F910F91FF908F
:100F5000EF90DF90CF90BF90AF909F908F900895CB
:100F60009D9191938F5F69CF85EEA5CF80914803C6
:100F700090914903A0914A03B0914B03892B8A2B8E
:100F80008B2B09F49ECF0E9483020091480310919D
:100F9000490320914A0330914B036C197D098E0956
:100FA0009F09061717072807390708F08ACFC0CF0F
:100FB00081E0C3CF80E0C1CF82E0BFCF83E0BDCF6F
:100FC000CF92DF92EF92FF920F931F93CF93DF9315
:100FD000D82FC62F613208F098C00E9483026B019F
:100FE0007C018091460381116BC081E080934603B0
:100FF000809345039FEF90934403109243039C0F0B
:10100000909342038093210380912103DD0FD82B1D
:10101000D093210380912003813009F078C0109291
:1010200020030E9483026B017C0180912103809345
:10103000BB008091480390914903A0914A03B0916D
:101040004B03892B8A2B8B2BA1F00E9483020091EA
:1010500048031091490320914A0330914B036C19C6
:101060007D098E099F09061717072807390708F415
:1010700048C08091BC0083FDD8CF85EC8093BC0034
:101080000E9483026B017C0180914603813009F448
:1010900040C0809143038C1710F4C0914303E2E2F7
:1010A000F3E0A2EFB2E080E08C1355C08C2FDF910B
:1010B000CF911F910F91FF90EF90DF90CF90089507
:1010C0008091480390914903A0914A03B0914B034A
:1010D000892B8A2B8B2B09F484CF0E9483020091E9
:1010E00048031091490320914A0330914B036C1936
:1010F0007D098E099F09061717072807390708F089
:1011000070CF809147030E94CF06C0E0CFCF85EE1D
:10111000B5CF8091480390914903A0914A03B091C3
:101120004B03892B8A2B8B2B09F4AECF0E948302B1
:10113000009148031091490320914A0330914B03D9
:101140006C197D098E099F090617170728073907AB
:1011500008F09ACFD6CF91919D938F5FA5CF089538
:10116000E091F1028091F002E81730F4F0E0EE50E7
:10117000FD4F808190E008958FEF9FEF089590914B
:10118000F1028091F0022FEF3FEF981748F4E92F1A
:10119000F0E0EE50FD4F208130E09F5F9093F10230
:1011A000C9010895CF92DF92EF92FF920F931F93A0
:1011B000CF93DF937C01CB018A0120914C03222342
:1011C00089F0EB016B01C40ED51ECC15DD0569F06D
:1011D0006991D701ED91FC910190F081E02DC7015B
:1011E0000995F3CF642F0E948A06C801DF91CF9141
:1011F0001F910F91FF90EF90DF90CF900895CF93C4
:10120000DF931F92CDB7DEB7698320914C03222371
:10121000F9F020916F03203258F021E030E0FC011A
:101220003383228390E080E00F90DF91CF91089587
:1012300080914D03E82FF0E0E25BFC4F99819083B1
:101240008F5F80934D0380936F0381E090E0ECCF3C
:1012500061E0CE0101960E948A06F7CFCF93C82F96
:1012600081E080934C0382E580936E0310924D03DE
:1012700010926F038DEA94E00E94FF086C2F8DEAB4
:1012800094E00E94FF0881E00E94F0066AE070E0AE
:1012900080E090E0CF910C94A80290E080E0089567
:1012A000DF92EF92FF920F931F93CF93DF93EC01A6
:1012B000D62E7A01890188818C3008F067C061E000
:1012C0008D2D0E9427028881282F30E0F901EE0F32
:1012D000FF1FE20FF31FE754FB4F9D2D9F736081AB
:1012E000607C692B608320E232E02E193F0937FFD2
:1012F00002C02D5F3F4F359527953595279529835A
:1013000020E639E0201B310B37FF02C02D5F3F4F35
:1013100035952795359527952A832CE0622F0E94D5
:10132000D220829FB001112430E020E0AB01420FB7
:10133000531FFA01EE0FFF1FE40FF51FE754FB4F99
:10134000908196FD16C02F5F3F4F2C30310571F70D
:1013500081110FC01092800082E080938100109272
:10136000850010928400B19A80916F008260809312
:101370006F00E8818E2F90E0FC01EE0FFF1FE80F59
:10138000F91FE754FB4F8081806480838881DF915F
:10139000CF911F910F91FF90EF90DF900895CF9321
:1013A0008630B0F421E030E0082E02C0220F331F57
:1013B0000A94E2F74091E1025091E202672B51F466
:1013C00020953095242335233093E2022093E102C7
:1013D000CF910895242B352B3093E2022093E10224
:1013E000909156029111F4CFC82F0E946302BC0164
:1013F0008C2FCF910C94B4005F926F927F928F925A
:101400009F92AF92BF92CF92DF92EF92FF920F9393
:101410001F93CF93DF93833008F061C0D1E0D80FE2
:10142000DD0FDD0FDD0F5D2ED53110F044E1542EC0
:10143000C62F082FD8508D2E912CC401880F991FCC
:101440009C012D5E3B4F5901D12CC12C10E077241B
:101450007394D515C8F58EEF8D0F8231F8F4F6012F
:10146000E80DF91DE25AFB4F90819230B8F48C2FB1
:10147000872166246394811101C0612C7601EE0CF2
:10148000FF1C913089F417293FE5E30EF11CF501AB
:10149000EE0DFF1D862D90E091838083770CDF5F3A
:1014A0008FEFC81AD80AD5CF882371F3F701E15A14
:1014B000FF4FEA0DFB1D80819181019729F362E0C6
:1014C0008D2F0E942702E0CF011119C0F8948BB133
:1014D0006C2F68276C7F612368276BB97894DF9144
:1014E000CF911F910F91FF90EF90DF90CF90BF9021
:1014F000AF909F908F907F906F905F900895013094
:10150000D1F4C123F89495B1812F8F7380958923ED
:101510009C2F9F73892B85B988B1612F6295669541
:101520006695637060956823C295C695C695C3702D
:10153000C62BC8B9D3CF1F70F89498B1812F880FEC
:10154000880F80958923C123CC0FCC0FC82BF1CFF6
:101550008F929F92AF92BF92CF92DF92EF92FF92C3
:101560000F931F93CF93DF93EB01843108F098C062
:10157000082F10E0F801E25AFB4F9081933009F4F4
:101580009CC0943009F08CC08250823108F081C038
:10159000F801E25CFD4FC080D12C7601EE0CFF1CFF
:1015A0004B01603282E078070CF03EC0F701EC0D91
:1015B000FD1DE252FB4F8181A8E88A2E912C881AEA
:1015C000910887FD9394880C991C880C991C092C10
:1015D000000CAA08BB08828128E532E0281B3109EB
:1015E00087FD3395220F331F220F331F032E000C6C
:1015F000440B550B281939094A095B09DB01653B86
:10160000710514F0A4EBB0E0B7FF02C0B0E0A0E0B9
:101610000E94992024EB30E040E050E00E946F20CF
:10162000820E931EA41EB51EF701EC0DFD1DE252A5
:10163000FB4F20812C3068F5318188E890E0831BD6
:10164000910937FD9395880F991F880F991F881668
:1016500099067CF0328188E592E0831B910937FD81
:101660009395880F991F880F991F881699060CF477
:10167000C4010297880F991F4FB7F89430E0F90121
:10168000EE0FFF1FE20FF31FE754FB4F928381839E
:101690004FBF000F111FF801EE58FB4FD183C083DD
:1016A000DF91CF911F910F91FF90EF90DF90CF903E
:1016B000BF90AF909F908F9008957B01D82F83307B
:1016C00041F08BEF800F823020F087EF800F833066
:1016D00058F461E08D2F0E942702E114F10461F4B7
:1016E00060E08D2F0E94F901000F111FF801EE58E4
:1016F000FB4FF182E082D4CF8FEFE816F10411F4B2
:1017000061E0EFCFF801E358FF4FE491E33021F1BE
:1017100048F4E130B9F0E230D1F080E8E816F104A5
:101720007CF7DECFE73011F1E83041F1E430A9F782
:1017300080918000806280938000F0928B00E09224
:101740008A00D2CF84B5806884BDE7BCCDCF84B594
:10175000806284BDE8BCC8CF80918000806880939F
:101760008000F0928900E0928800BECF8091B000A6
:1017700080688093B000E092B300B6CF8091B00053
:1017800080628093B000E092B400AECF9EEF980FDD
:10179000923180F4E82FF0E0DF01A25ABB4F9C9118
:1017A000913041F4EE0FFF1FEE58FB4F60837183C1
:1017B0000C94F90108950F931F93CF93082F10E015
:1017C000F801ED54FD4F9081C62FC9230E5A1D4FCD
:1017D000411104C0D8019C919C1771F1682F809130
:1017E0001304909114046F706069DC01ED91FC9119
:1017F0000190F081E02D09958091130490911404DB
:101800006C2F6F77DC01ED91FC910190F081E02D60
:10181000099580911304909114046C2F70E0660F69
:10182000672F661F770BDC01ED91FC910190F08131
:10183000E02D0995F801C083CF911F910F91089574
:10184000833040F5282F30E0F901EA54FD4F6083E2
:10185000672B01F12D543D4FF9016081811106C0C4
:1018600099B19C7F692341E00C94DB0B813049F4F2
:1018700093B126B19F73F0E42F9F90011124922B16
:10188000F1CF26B130E035952795359527952F7006
:101890006223E9CF0895A82FB0E0A25CBD4FEC9180
:1018A0008E2F90E0FC01EE0FFF1FE80FF91FE252B0
:1018B000FB4F8081282F30E0F901EE0FFF1FE20F70
:1018C000F31FE754FB4F90819F7B90832CE0622FA6
:1018D0000E94D220829FC001112430E020E0AC01A0
:1018E000420F531FFA01EE0FFF1FE40FF51FE754DD
:1018F000FB4F408146FD11C02F5F3F4F2C3031051B
:1019000071F71092810082E08093810081E08093E2
:1019100081008093800010926F008C9190913C0226
:10192000891308C0882319F0815080933C028FEFFF
:101930008C9308959923D9F3E0913D02EF5FE093F2
:101940003D02F0E0E55FFD4F8083F1CFFC010190A7
:101950000020E9F73197BF01681B790BAC0181E7E3
:101960000C94E300CF93DF93DB0190913C029C3019
:1019700078F530913D02682F70E0FB01E25CFD4F8D
:101980003323E1F0C32FD0E0C55FDD4F8881808332
:10199000315030933D02808123E0829FC0011124A9
:1019A00082529B4F1A161B0674F4141615065CF42B
:1019B0009A01AD01DF91CF910C94500990839F5F04
:1019C00090933C02E8CF20E639E040E252E0F2CFCB
:1019D00084E391E0DF91CF910C94A60C8F929F92BB
:1019E000AF92BF92EF92FF920F931F93CF93DF932B
:1019F000CDB7DEB7A1970FB6F894DEBF0FBECDBF4F
:101A00007C01FA01CB0119A2223008F42AE08E01F0
:101A10000F5D1F4F822E912CB12CA12CBF01A5016F
:101A200094010E94A120F901CA016A3074F5605D39
:101A3000D8016E938D01232B242B252B79F790E071
:101A400080E0109789F0FD0101900020E9F73197BF
:101A5000AF014A1B5B0BD701ED91FC910280F38132
:101A6000E02DB801C7010995A1960FB6F894DEBF25
:101A70000FBECDBFDF91CF911F910F91FF90EF90DF
:101A8000BF90AF909F908F900895695CD1CFFF92E7
:101A90000F931F93CF93DF93CDB7DEB72C970FB67D
:101AA000F894DEBF0FBECDBF66E082E50E94E0077E
:101AB000F82E1092F1028093F0028E010F5F1F4FFB
:101AC0008091F102F81649F08DEA94E00E94BF0877
:101AD000F801819391938F01F3CF89819A8190933B
:101AE0001303809312038B819C8190931503809341
:101AF00014038B859C852D813E81220F331F220F7D
:101B0000331FAC015595479555954795437055271B
:101B1000242B352B30931703209316032F81388500
:101B2000220F331F220F331FAC01E4E05595479578
:101B3000EA95E1F743705527242B352B3093190391
:101B40002093180329853A85220F331F220F331F54
:101B5000AC01A6E055954795AA95E1F74370552746
:101B6000242B352B30931B0320931A039C012095C3
:101B700030952170332730931D0320931C0321E0FF
:101B800030E081FF02C030E020E030931F0320935B
:101B90001E0360E080E02C960FB6F894DEBF0FBE07
:101BA000CDBFDF91CF911F910F91FF900C942E0923
:101BB0008F929F92AF92BF92CF92DF92EF92FF925D
:101BC0000F931F93CF93DF937C01EB016C0182E0B5
:101BD000C80ED11C4701E5E08E0E911C10E000E01C
:101BE000F60141916F0150E070E060E02AE0CE0123
:101BF0000E94EE0C5C01E881F9810190F081E02DFA
:101C00006EE2CE0109958A0D9B1D080F191FC8149D
:101C1000D90431F7F701458150E070E060E02AE037
:101C2000CE010E94EE0C800F911FDF91CF911F918A
:101C30000F91FF90EF90DF90CF90BF90AF909F906B
:101C40008F9008959F92AF92BF92CF92DF92EF92C2
:101C5000FF920F931F93CF93DF93C82ED12CE601F1
:101C6000CD5EDB4FFE01E55BFF4F90819F3709F4AE
:101C70009FC0963061F490915502992341F06630EF
:101C8000710529F0109255029FEF909301017B019D
:101C9000182F0EEF080F023108F564307105F1F0CE
:101CA000F601E25CFD4F80818C30C0F490E0FC01D5
:101CB000EE0FFF1FE80FF91FE252FB4FE0818E2F5E
:101CC00090E0FC01EE0FFF1FE80FF91FE754FB4FF8
:101CD000808186FF03C0812F0E944B0C52EF952E0E
:101CE000910E85E0891558F061E070E032E0E3166E
:101CF000F10411F070E060E0892D0E94CF090231FB
:101D0000C8F4E12FE695E695E695F0E0ED54FD4F39
:101D10002081312F377081E090E001C0880F3A9523
:101D2000EAF7E114F10421F03BE0E316F10401F5D8
:101D3000822B80835601AA0CBB1CF501EE58FB4F89
:101D4000118210828CE0E816F10408F0C4C0F7019B
:101D5000E455F14F0C94F220CC0EF90EBB0E0A0F95
:101D6000280F6B0F5F0F6B0F6B0F6B0FD80EE40E0E
:101D700080958223DECF35E03915D0F0023120F492
:101D800060E0812F0E942702C55BDF4F88818F377B
:101D900079F082E088830CC0023150F460E0812F3A
:101DA0000E942702C55BDF4F88818F3709F01882B8
:101DB000DF91CF911F910F91FF90EF90DF90CF9027
:101DC000BF90AF909F900895023190F762E0812F0D
:101DD0000E942702C55BDF4F88818F3711F08BE0AF
:101DE0008883F501EE58FB4F81E090E0918380837A
:101DF000DFCF0231E8F660E0812F0E94F90161E057
:101E0000812F0E942702C55BDF4F88818F3781F2C7
:101E100081E0C0CF133041F08BEF810F823020F092
:101E200087EF810F833020F661E0812F0E94270227
:101E300061E0812F0E94270260E0812F0E94F9015A
:101E4000C55BDF4F88818F3709F4B2CF83E0A2CF23
:101E5000023108F0ADCFC55BDF4F88818F3711F0BD
:101E600084E08883F601E25CFD4F80818F3FA9F01A
:101E700090E0FC01EE0FFF1FE80FF91FE252FB4F4D
:101E8000E0818E2F90E0FC01EE0FFF1FE80FF91F9D
:101E9000E754FB4F808186FD8BCF4FEF5FEF6FEFF5
:101EA0007FEF812FDF91CF911F910F91FF90EF90E6
:101EB000DF90CF90BF90AF909F900C94B20C1251D6
:101EC000123008F075CFC55BDF4F88818F3709F47A
:101ED0006FCF86E05FCF88E491E0DF91CF911F91D3
:101EE0000F91FF90EF90DF90CF90BF90AF909F90B9
:101EF0000C94A60C0F931F93CF93DF9381E08093F4
:101F0000560280915502882329F0109255028FEFD6
:101F1000809301011092B6021092B3021092520205
:101F20001092B7021092B402109253021092B802AB
:101F30001092B502109254020EE312E0C0E0DFEFFF
:101F400082EF8C0F62E070E0863030F08EEF8C0F05
:101F5000823128F461E070E08C2F0E94220EF8019B
:101F6000D1938F01CF5FC43159F71092E2021092E2
:101F7000E10210923D0210923C0210925602DF9153
:101F8000CF911F910F910895EF92FF920F931F939E
:101F9000CF93DF93D82F8B01C42FF22E6F3F76079C
:101FA00009F448C081E080934C03D0936E031092F3
:101FB0004D0310926F038DEA94E00E94FF088F2D6D
:101FC0000E94F00680913A0290913B02009711F036
:101FD0000E9478026C2FC13208F060E28D2F0E94BF
:101FE000E0071092F1028093F002EC2EF12C90E0C9
:101FF000E816F9060CF589E591E00E94A60CD0934D
:1020000018020093190208E112E0C80188519240B9
:102010008E159F05BCF40F5F1F4F9091F0028091C9
:10202000F102981779F08DEA94E00E94BF08F80158
:102030008183EBCF00E0CECF8E159F0504F786E7B6
:1020400091E0DBCF62E06C0F48E152E087E7DF917F
:10205000CF911F910F91FF90EF900C94E3000F939D
:102060001F9390E0FC01E155FF4F7491FC01E55690
:10207000FF4FE4916111672FF0E0EE0FFF1FEF5665
:10208000FF4F8591949189019A013F70462F672FE8
:102090000E94511C611571058105910529F06F5F42
:1020A0007F4F8F4F9F4F9F701F910F91089585ED28
:1020B0008093BC008091480390914903A0914A030A
:1020C000B0914B030796A11DB11D23E0B695A795CE
:1020D000979587952A95D1F72091BC0024FD03C0E0
:1020E000109246030895409148035091490360912E
:1020F0004A0370914B03452B462B472B69F30097FE
:10210000A105B10541F02AE22A95F1F700C0019737
:10211000A109B109E1CF809147030C94CF063F920A
:102120004F925F926F927F928F929F92AF92BF92E7
:10213000CF92DF92EF92FF920F931F93CF93DF9393
:10214000CDB7DEB72C970FB6F894DEBF0FBECDBF6C
:10215000F62E8A01823C09F414C508F0BEC080370F
:1021600009F4BCC308F05FC08B3609F42AC4D8F464
:10217000893609F4DCC42C960FB6F894DEBF0FBE86
:10218000CDBFDF91CF911F910F91FF90EF90DF9026
:10219000CF90BF90AF909F908F907F906F905F9007
:1021A0004F903F9008958D3609F47EC48F3619F70D
:1021B000F1E0F61700F7DA0111966C9170E0B2E0E9
:1021C000FB16B1F0FA018281F0E88F9FC001112463
:1021D000682B792B23E0F21659F0DA0113968C91D3
:1021E00090E090E4899F902D88271124682B792B0B
:1021F000F80180812C960FB6F894DEBF0FBECDBFDC
:10220000DF91CF911F910F91FF90EF90DF90CF90D2
:10221000BF90AF909F908F907F906F905F904F9006
:102220003F900C94A80A8A3709F4B1C308F042C061
:10223000863709F43FC2883709F09DCFFA018181C2
:10224000F0E88F9F90011124DA018C91820F932F77
:10225000911D009721F090933B0280933A02809168
:102260005502811188CF10E08EEE810F823028F464
:1022700066E070E0812F0E94220E1F5F1431A1F7EB
:1022800081E0809355021092F1021092F0021092B8
:102290004D0310926F030E94B1068BED92E0909374
:1022A000B0028093AF028CED92E09093B2028093E3
:1022B000B10261CF803C09F44BC4813C09F05BCF93
:1022C0000E94470D009114031091150380EF90E0D8
:1022D0000E94650681EC90E047C4883C09F4F5C48F
:1022E00008F085C0853C09F46DC4F0F5833C09F421
:1022F0005CC4843C09F03FCF0E94470D0091160357
:102300001091170380EF90E00E94650684EC90E046
:102310000E946506C8018F7799270E946006C80150
:10232000880F892F881F990B91958F7799270E9485
:10233000600687EF90E02C960FB6F894DEBF0FBED4
:10234000CDBFDF91CF911F910F91FF90EF90DF9064
:10235000CF90BF90AF909F908F907F906F905F9045
:102360004F903F900C946506863C09F438C4873C36
:1023700009F001CFFA01C48086816581F0E46F9F86
:10238000B00111242C2D30E0322F22273295330F4B
:10239000307E622B732B90E09C0136952795622B43
:1023A000732B9695982F882797958795D801179620
:1023B0009C91892B6032710508F01EC42C960FB6D3
:1023C000F894DEBF0FBECDBFDF91CF911F910F916B
:1023D000FF90EF90DF90CF90BF90AF909F908F9045
:1023E0007F906F905F904F903F900C94DD028F3CF8
:1023F00009F4ADC508F06BC0893C09F432C58A3CCC
:1024000009F0B9CEFA01D180F0808F2D880FFD2C14
:10241000F294F694F694A3E0FA22F82AE3808281FB
:10242000880F1E2D1295169516951370182B61E0C6
:102430008F2D0E94270260E08F2D0E94F9018D2DC3
:102440008F7190E00E94780261E08F2D0E94F90167
:102450008E2D8F7190E00E94780260E08F2D0E9497
:10246000F90160E0812F0E9427022FEF3FEF40E04B
:1024700050E061E0812F0E942F106B0180EF90E00F
:102480000E9465068AEC90E00E9465068D2D869577
:1024900090E00E946006C60196958795969587956F
:1024A0008F7799270E94600605E0CC0CDD1C0A9509
:1024B000E1F7F0E6CF22DD24812F8695869586957B
:1024C0009601282BC9010E9460061770C8C4803D80
:1024D00009F422C6813D09F04ECEE0903802F0901A
:1024E0003902E114F10409F446CEFA01818190E049
:1024F000009709F440CED70112962D913C91B90175
:102500000E94DE204081413009F097C6019710F407
:10251000C90101978217930708F052C0D80112969B
:102520002C91129713964C91139750E070E060E055
:10253000762F652F542F4427622B14962C91422B13
:102540002B0166247724852E962EA72EBB24182DCA
:10255000B42FF7012085A42D222391F0A22FB0E003
:10256000A49DF001A59DF00DB49DF00D1124AF2F99
:10257000289D40011124192D249FA0011124B52F5D
:10258000F7015685218532854385541361C6AC0118
:10259000440F551F840F951F820F931FF70123854A
:1025A000FC01E20FF11DA083F7012485FC01E20F7D
:1025B000F11D1083F7012585820F911DFC01B08369
:1025C000D70119968D919C91892B09F4D4CD0E9445
:1025D0008302F70107851089218932896017710705
:1025E0008207930720F46787708B818B928BF701AA
:1025F0000785108921893289601B710B820B930B2F
:102600006C3271408105910510F3F894D70114964E
:102610008D919C9115979A8389831996ED91FC91E0
:102620001A978F010F5F1F4F80818C879C91539663
:10263000ED91FC91549755968C91992309F413C60A
:102640009081982B9B879081809589238A878A85A2
:102650008F8388E08E835B856A854C853E812F81E0
:1026600089819A81D801508347FD252F3A9520838F
:10267000262F39F0441F00C000006083000000C016
:10268000F2CF38E04D9160830000019761F7D701E8
:102690005496FC93EE9353974C873E832F839A83F3
:1026A000898378940E948302F7016787708B818BFE
:1026B000928B61CDDA0111969C91119795FF1BC009
:1026C00082E991E02C960FB6F894DEBF0FBECDBF25
:1026D000DF91CF911F910F91FF90EF90DF90CF90FE
:1026E000BF90AF909F908F907F906F905F904F9032
:1026F0003F900C94A60CFA01808196FB332730F9A9
:1027000021E0232798719830B9F1F8F4911133CD75
:1027100091E090934C0380936E0310924D031092BE
:102720006F0382E0E82EEF14F8F4F801EE0DF11DCE
:1027300061816795662767958081680F8DEA94E0CF
:102740000E94FF08E394E394EECF903109F44CC06B
:10275000983109F010CD2091010112160CF479C0C6
:102760008FEF8093010107CD81E00E94F00683E1A5
:1027700091E00197F1F7FFCC12969C911297139676
:102780004C91B6E06B1329C0E0E84E9FB0011124D4
:10279000690F711DD80115964C91159747954427DF
:1027A000479514969C91490F2C960FB6F894DEBF6E
:1027B0000FBECDBFDF91CF911F910F91FF90EF9092
:1027C000DF90CF90BF90AF909F908F907F906F9051
:1027D0005F904F903F900C94C40F479544274795C6
:1027E000490F6FEF7FEFE0CFE0910101E7301CF080
:1027F00082EB91E067CF12963C91129713969C91D1
:10280000B6E06B131FC0F0E89F9FA0011124430F97
:10281000511DD80115969C911597979599279795D5
:1028200014963C91930FEF5FE0930101B5E0EB024A
:10283000F0011124E754FD4F808352834183938339
:10284000248399CC979599279795930F4FEF5FEF36
:10285000EACF90E0622F022E000C770B35E0492F73
:1028600050E06417750764F0349FF001359FF00D58
:102870001124E754FD4F4081481719F09F5FEFCFB7
:1028800090E085E0492F50E0641775071CF19830FF
:10289000F8F4FA0131968E9FD0018F9FB00D11246C
:1028A000A754BD4F3C91849FF001859FF00D1124EA
:1028B000E754FD4F308311964D915C9112975283EE
:1028C000418313963C911397338314963C91348340
:1028D0009F5FD8CF2150209301014DCCB4E0B617B3
:1028E00008F049CCFA01F0808EEF8F0D823108F0AC
:1028F00042CCE180C280D3801481EF2DF0E0E25C15
:10290000FD4F80818C30C0F490E0FC01EE0FFF1F82
:10291000E80FF91FE252FB4FE0818E2F90E0FC019F
:10292000EE0FFF1FE80FF91FE754FB4F808186FF72
:1029300003C08F2D0E944B0CF0E81F9FA0011124B3
:102940004D0D511D20E8C29EB00111246E0D711D68
:102950008F2D0E94B20C64E070E08F2D2C960FB684
:10296000F894DEBF0FBECDBFDF91CF911F910F91C5
:10297000FF90EF90DF90CF90BF90AF909F908F909F
:102980007F906F905F904F903F900C94220E31E0BB
:10299000361708F0F0CBDA0111968C91B0E88B9FD6
:1029A00090011124FA018081820F932F911D0097CD
:1029B00029F09093030180930201DDCB81E090E048
:1029C000F8CF80EF0E947F018CE60E947F011EEF0E
:1029D0001231E0F480E00E947F0181E00E947F01DB
:1029E0008BE00E947F0181E00E947F0181E00E94D4
:1029F0007F0181E00E947F01123010F0133031F42A
:102A000085E00E947F0181E00E947F0184EF810FB9
:102A1000863078F482E00E947F018AE00E947F0184
:102A20008DEF810F823038F089EF810F833048F4C9
:102A300002C01130A9F783E00E947F0188E00E9464
:102A40007F01123130F484E00E947F018EE00E9409
:102A50007F0180EF810F823030F486E00E947F0199
:102A600081E00E947F018FE70E947F011F5F12318A
:102A700009F0AECF87EF2C960FB6F894DEBF0FBEED
:102A8000CDBFDF91CF911F910F91FF90EF90DF901D
:102A9000CF90BF90AF909F908F907F906F905F90FE
:102AA0004F903F900C947F01662309F464CBDA01C8
:102AB0000C9180EF0E947F018EE60E947F01802FA3
:102AC0000E947F010431B0F610E0F801E25AFB4F9A
:102AD00080810E947F01000F111FF801EE58FB4F0B
:102AE0007F0180818F770E947F01D7018D919C911A
:102AF0009C012078232B39F0880F892F881F990B90
:102B00008F770E947F01F801EE58FB4F8081918101
:102B10009C012227307C232B09F4ACCF990F880B22
:102B2000990F982F881F8F770E947F01A3CF80EF86
:102B30000E947F018AE60E947F0112EF8FE7163024
:102B400008F4812F0E947F011F5F1630B9F792CFE2
:102B50000E94470D009112031091130380EF90E043
:102B60000E94650680EC90E00E946506C8018F77A0
:102B700099270E946506001F0027001F802F90E004
:102B800011C00E94470D00911C0310911D0380EF9E
:102B900090E00E94650682EC90E00E946506C80104
:102BA0008F7799270E946506C4CB0E94470D00913C
:102BB0001E0310911F0380EF90E00E94650683ECD6
:102BC00090E0EBCF0E94470D00911803109119037C
:102BD00080EF90E00E94650685EC90E099CB0E9422
:102BE000470D00911A0310911B0380EF90E00E94A3
:102BF000650686EC90E08CCBF8019381292F30E0BC
:102C000050E040E014E0220F331F441F551F1A9577
:102C1000D1F7D12CF12CE12C03E0F694E794D79472
:102C2000C7940A95D1F72C293D294E295F29C280E6
:102C3000D12CF12CE12C9BE0CC0CDD1CEE1CFF1CFC
:102C40009A95D1F72C293D294E295F29C180D12C95
:102C5000F12CE12CA2E1CC0CDD1CEE1CFF1CAA9592
:102C6000D1F72C293D294E295F29C080D12CF12C88
:102C7000E12CB9E1CC0CDD1CEE1CFF1CBA95D1F7A0
:102C80002C293D294E295F29211531054105510582
:102C900019F420E030E0A9012C960FB6F894DEBFBD
:102CA0000FBECDBFDF91CF911F910F91FF90EF909D
:102CB000DF90CF90BF90AF909F908F907F906F905C
:102CC0005F904F903F900C940903DA0114962C9179
:102CD0001497CC90D12CF12CE12C59E1CC0CDD1CBB
:102CE000EE1CFF1C5A95D1F711968C9190E0B0E044
:102CF000A0E062E1880F991FAA1FBB1F6A95D1F758
:102D0000C82AD92AEA2AFB2AF801828190E0B0E099
:102D1000A0E07BE0880F991FAA1FBB1F7A95D1F70F
:102D2000C82AD92AEA2AFB2A838190E0B0E0A0E0F1
:102D3000E4E0880F991FAA1FBB1FEA95D1F7C82AA4
:102D4000D92AEA2AFB2A822F90E0B0E0A0E0F3E043
:102D5000B695A79597958795FA95D1F7C82AD92A58
:102D6000EA2AFB2A30E0B901759567957595679554
:102D7000F62FF170BF2ED80115961C911F73B6E087
:102D8000220F331FBA95E1F7122B60E0812F0E94CA
:102D9000270220E432E44FE050E0C114D104E10402
:102DA000F10411F0A70196016B2D812F0E942F10C5
:102DB0006B017C0180EF90E00E94650688EC90E05A
:102DC0000E946506C701B601B9E19695879577958A
:102DD0006795BA95D1F70E945C06C701B60102E17A
:102DE00096958795779567950A95D1F76F777727A9
:102DF000882799270E945C06C701B6012BE09695AB
:102E00008795779567952A95D1F76F7777278827E4
:102E100099270E945C06C701B60134E09695879514
:102E2000779567953A95D1F76F7777278827992710
:102E30000E945C0643E0CC0CDD1CEE1CFF1C4A9596
:102E4000D1F7C701B6016877772788279927212FFF
:102E5000229526952770622B0E945C061F71812F98
:102E60008ECEFA018181282F30E0C080F0E1CF9E24
:102E700060011124C90143E0969587954A95E1F7D1
:102E8000C82AD92AD8011396AC901397B12C129660
:102E90009C911297E92EF12CEE0CFF1C322F222769
:102EA000E22AF32AC50176E0969587957A95E1F7AF
:102EB000E82AF92A14968C901497E5E0AA0CBB1C1A
:102EC000EA95E1F7912CC40196958795969587959B
:102ED000A82AB92A15961C9180FA17F961E0812F6A
:102EE0000E942702959487949924939400E080FC93
:102EF00002C0912C01E0602F812F0E94F901C601D0
:102F00000E947802692D812F0E94F901C7010E9459
:102F10007802602F812F0E94F901C5012C960FB60F
:102F2000F894DEBF0FBECDBFDF91CF911F910F91FF
:102F3000FF90EF90DF90CF90BF90AF909F908F90D9
:102F40007F906F905F904F903F900C947802DA01E1
:102F50002C91822F90E095958795182F1F732170E3
:102F6000322E19821A821B821C821D8262E0812FFE
:102F70000E94270261E0812F0E94F9016AEF70E050
:102F800080E090E00E94A80261E0812F0E94270269
:102F900060E0812F0E94F90164E170E080E090E040
:102FA0000E94A80261E0812F0E94F9018BE990E064
:102FB0000197F1F762E0812F0E94270283E290E0FF
:102FC0000197F1F7E1E1EE2EE7E2FE2E812F0E945C
:102FD000D001892B31F4B1E0EB1AF108B9F701E027
:102FE0000FC061E1E62E67E2F62E812F0E94D0012C
:102FF000019709F067C0E1E0EE1AF108B1F702E0CD
:1030000038E2C32ED12CE12C47E0F42E882483949F
:10301000912C01110AC021E1A22E27E2B22E812FAC
:103020000E94D001892B09F44FC00E9483022B011A
:103030003C0191E1A92E97E2B92E002309F44BC07F
:103040000E94830264197509860997096F31710519
:103050008105910508F04BC0F11059C0E39487E059
:10306000F82E31E0C31AD108A1F6F9809B818F2D8B
:10307000890F2A81820F2C81820F2D81281349C04C
:10308000011147C03110F92E64E170E080E090E05A
:103090000E94A80280EF90E00E9465068FEC90E00D
:1030A0000E9465068F2D869590E00E9465068F2D03
:1030B000817090E00E946506812F90E0880F991F33
:1030C000832970CD00E09CCFF1E0AF1AB10809F080
:1030D000A6CF03E0AACF812F0E94D001019709F06B
:1030E000AFCF21E0A21AB108B1F704E0A9CFE1E027
:1030F000F0E0EC0FFD1FEE0DF11D808194010F2C0F
:1031000001C0220F0A94EAF7822B8083A5CFFA949C
:10311000A8CFFF24FA94B8CFDA01DC901196EC9096
:1031200000913802109139020115110589F0F8015A
:10313000818592850E94A821D80116968D919C9137
:1031400097FD03C060E00E942702C8010E94A821E9
:1031500086E190E00E940C218C01AE2CB12CFC0188
:10316000118210861786108A118A128A81E086875A
:103170008387148692E095878083B3E0EB9E70018D
:103180001124F582E482C7010E940C21D8011A960D
:103190009C938E931997009709F446C0A70170E09D
:1031A00060E00E943122F801B382A282ED2CF12C62
:1031B000F801F782E6828181882341F061E08D2D5C
:1031C0000E94270260E08D2D0E94F901F701E5566B
:1031D000FF4FE491F0E0EE0FFF1FED58FF4F859198
:1031E0009491D80154969C938E935397F701E1558F
:1031F000FF4FE4915596EC93559710933902009345
:10320000380216968D919C9197FD08C061E00E944E
:10321000270260E0F80186810E94F90181E0D8016F
:1032200011968C930C94BB1015961C921E921497B9
:1032300013961C921E921297B9CFF901E81BF90B55
:10324000CF012E173F0709F065C990E080E062C901
:10325000880F991F880F991F820F931FFC01E50F9C
:10326000F11D10829BC99081982B9B87908180953E
:1032700089238A878A85898788E088875B856A852C
:103280004C853885298589819A81D801508347FDED
:10329000252F00C000C0208300C000C000C000C0B7
:1032A00000C060830000262F3A9541F0441F0000C3
:1032B00000C000C000C000C000C0E8CF38E04D91A1
:1032C00000C0608300C0019709F7D7015496FC93B2
:1032D000EE9353974C8738872987E1C91F920F9245
:1032E0000FB60F9211242F933F938F939F93AF9319
:1032F000BF938091E8029091E902A091EA02B09117
:10330000EB023091E70223E0230F2D3758F50196A9
:10331000A11DB11D2093E7028093E8029093E9027A
:10332000A093EA02B093EB028091EC029091ED023F
:10333000A091EE02B091EF020196A11DB11D809304
:10334000EC029093ED02A093EE02B093EF02BF91D6
:10335000AF919F918F913F912F910F900FBE0F9042
:103360001F90189526E8230F0296A11DB11DD2CFFC
:103370001F920F920FB60F9211242F933F934F93EA
:103380005F936F937F938F939F93AF93BF93EF93CD
:10339000FF938091AB029091AC02A091AD02B091ED
:1033A000AE02892B8A2B8B2BD1F19091AA02E0914E
:1033B000A802F091A9028081892780838091AB02C5
:1033C0009091AC02A091AD02B091AE021816190610
:1033D0001A061B069CF48091AB029091AC02A0915E
:1033E000AD02B091AE020197A109B1098093AB0281
:1033F0009093AC02A093AD02B093AE02FF91EF9117
:10340000BF91AF919F918F917F916F915F914F91FC
:103410003F912F910F900FBE0F901F9018958091A4
:1034200000010E94DD02EACF1F920F920FB60F92A9
:1034300011242F933F934F935F936F937F938F93B9
:103440009F93AF93BF93EF93FF9380E793E00E9426
:10345000ED05FF91EF91BF91AF919F918F917F917A
:103460006F915F914F913F912F910F900FBE0F90F1
:103470001F9018951F920F920FB60F9211242F9341
:103480008F939F93EF93FF93E0918003F0918103DB
:103490008081E0918603F091870382FD1BC09081BB
:1034A000809189038F5F8F7320918A03821741F087
:1034B000E0918903F0E0E059FC4F958F80938903F8
:1034C000FF91EF919F918F912F910F900FBE0F90D1
:1034D0001F9018958081F4CF1F920F920FB60F9214
:1034E00011240F900FBE0F901F9018951F920F92EE
:1034F0000FB60F9211242F933F934F935F936F93C7
:103500007F938F939F93AF93BF93EF93FF9380919C
:10351000B900887F803609F44AC0F0F5883209F492
:10352000A7C018F5803109F49BC0B8F4882309F4CA
:10353000F9C0883009F494C0FF91EF91BF91AF9129
:103540009F918F917F916F915F914F913F912F91BB
:103550000F900FBE0F901F901895883109F488C006
:10356000803251F78093440314C0803409F49DC025
:1035700040F48033B9F38833F9F68093440385EC43
:10358000B0C0803509F485C0883509F496C0883408
:1035900099F60E945710D0CF883909F48CC038F5BD
:1035A000883729F050F4883611F0803729F683E007
:1035B0008093460310929B0257C0883809F47BC061
:1035C000803919F0803809F0B7CF80919B028032A2
:1035D00008F071C0E0919B0281E08E0F80939B0206
:1035E0008091BB00F0E0E558FD4F80833DC0803BFB
:1035F00039F0E0F4803A09F479C0883A09F09CCFB8
:1036000084E08093460310927A0210927902E0914E
:10361000AF02F091B00209958091790281110FC03B
:1036200081E0809379021092590209C0803C09F42C
:10363000A6CF883C09F4A3CF883B09F07DCFE09169
:103640007A0281E08E0F80937A02F0E0E75AFD4F14
:1036500080818093BB0090917A028091790229C089
:10366000809121038093BB0085EC8093BC0064CFE4
:103670009091430380914203981758F5E0914303DA
:1036800081E08E0F80934303F0E0EE5DFC4F80817C
:10369000E9CFE091430381E08E0F80934303809153
:1036A000BB00F0E0EE5DFC4F80839091430380917E
:1036B00042039817C8F285E8D8CFE091430381E030
:1036C0008E0F809343038091BB00F0E0EE5DFC4FD2
:1036D00080838091450381115CCF81E0809320033A
:1036E00084EA8093BC001092460326CF85EC809339
:1036F000BC001092460380919B02803230F4E0912E
:103700009B02F0E0E558FD4F108260919B0270E053
:10371000E091B102F091B2028BE792E0099510922C
:103720009B020ACF1092440334CF1F920F920FB620
:103730000F9211242F933F934F935F936F937F9337
:103740008F939F93AF93BF93CF93DF93EF93FF93A9
:1037500080915702C091DD04D0E087FF24C0109211
:10376000850010928400809157028F5F80935702EA
:1037700080915702082E000C990B8C179D0724F49A
:10378000809157028C30C4F1809184009091850023
:10379000049680349C4908F47AC08091840090910A
:1037A0008500049676C080915702082E000C990B74
:1037B0008C179D07C4F6E09157028E2FEE0F990BE0
:1037C000FC01EE0FFF1FE80FF91FE754FB4F80814C
:1037D00086FFC9CFE09157028E2FEE0F990BFC01A7
:1037E000EE0FFF1FE80FF91FE754FB4F808160E0E9
:1037F0008F730E94F901B7CF20918400309185002A
:10380000E09157028E2FEE0F990BFC01EE0FFF1F78
:10381000E80FF91FE754FB4F81819281820F931FBC
:103820009093890080938800E09157028E2FEE0FCD
:10383000990BFC01EE0FFF1FE80FF91FE754FB4F38
:10384000808186FF11C0E09157028E2FEE0F990BF9
:10385000FC01EE0FFF1FE80FF91FE754FB4F8081BB
:1038600061E08F730E94F901FF91EF91DF91CF9199
:10387000BF91AF919F918F917F916F915F914F9188
:103880003F912F910F900FBE0F901F90189580E4DD
:103890009CE990938900809388008FEF8093570272
:1038A000E3CFCF92DF92EF92FF920F931F93E82F17
:1038B000F92F05C0015011092109310961F19081E9
:1038C00096239417B9F305C0015011092109310954
:1038D00011F1908196239413F7CFC12CD12CE12CB8
:1038E000F12C0AC08FEFC81AD80AE80AF80A0C159A
:1038F0001D052E053F0579F080818623841791F3FD
:103900006C2D7D2D8E2D9F2D1F910F91FF90EF908F
:10391000DF90CF90089560E070E080E090E01F912C
:103920000F91FF90EF90DF90CF900895CF92DF92AC
:10393000EF92FF92109273031092720368EEC62EFC
:1039400063E0D62EE12CF12CC0927403D092750363
:10395000E0927603F09277038EE091E0909371030A
:103960008093700385EC90E090937D0380937C03BB
:1039700084EC90E090937F0380937E0380EC90E052
:10398000909381038093800381EC90E09093830374
:103990008093820382EC90E090938503809384036C
:1039A00086EC90E0909387038093860310928903BE
:1039B00010928A0310928B0310928C0380E291E0A4
:1039C00090930E0480930D0410920F041092100433
:1039D00010921104109212041092AC04109215046B
:1039E00010921704109216040E948C011092B004D9
:1039F0001092AF04C092B104D092B204E092B3042A
:103A0000F092B40486E291E09093AE048093AD040A
:103A1000EEEDF4E022E035E04FEF68EB7BE08091E3
:103A2000DD048C30D0F491E0980F9093DD04808316
:103A300090E0DC01AA0FBB1FA80FB91FA754BB4F12
:103A400012967C936E93119733962E173F0739F792
:103A5000FF90EF90DF90CF9008954083F5CF78945A
:103A600084B5826084BD84B5816084BD85B5826083
:103A700085BD85B5816085BD80916E008160809334
:103A80006E0010928100809181008260809381009D
:103A900080918100816080938100809180008160AD
:103AA000809380008091B10084608093B100809108
:103AB000B00081608093B00080917A008460809330
:103AC0007A0080917A00826080937A0080917A00F7
:103AD000816080937A0080917A00806880937A0078
:103AE0001092C10085E18093150480911604909195
:103AF00017040E94A821C0911504D0E0CE010196C0
:103B00000E940C219093170480931604FC01EC0F83
:103B1000FD1F108212E0DC011C9325E011962C930E
:103B2000AE014250510968EF71E002960E943822BE
:103B300088EA9AE090939B0480939A048CEF99E032
:103B400090939D0480939C048FEC99E090939F0444
:103B500080939E0480E29CE09093A1048093A00453
:103B600082E29EE09093A3048093A20486EC9BE003
:103B70009093A5048093A4048FE890E19093AB0404
:103B80008093AA048AE79FE09093A7048093A604F9
:103B9000E0918003F09181031083E0918003F09124
:103BA00081031082E0917C03F0917D031082E0910B
:103BB0007E03F0917F0380E1808310928803E0917F
:103BC0008403F091850386E08083E0918203F09185
:103BD0008303808180618083E0918203F09183037D
:103BE000808188608083E0918203F09183038081EB
:103BF00080688083E0918203F091830380818F7DD0
:103C0000808380E793E09093140480931304809161
:103C1000AC0481114FC061E08DE00E94270262ED8B
:103C200070E080E090E00E94A80261E08DE00E94D8
:103C3000F90168E270E080E090E00E94A80260E094
:103C40008DE00E94F90162ED70E080E090E00E945A
:103C5000A80261E08DE00E94F90168E270E080E076
:103C600090E00E94A80260E08DE00E94F9016AEFF6
:103C700070E080E090E00E94A802C5E062ED70E094
:103C800080E090E00E94A80261E08DE00E94F901CE
:103C900068E270E080E090E00E94A80260E08DE0C1
:103CA0000E94F901C15051F76DE770E080E090E0AB
:103CB0000E94A8020E945B018091150481110E945C
:103CC00015010E947A0F1092F1021092F0021092E8
:103CD0004D0310926F030E94B1068BED92E090931A
:103CE000B0028093AF028CED92E09093B202809389
:103CF000B10260EF85E50E942E096BEF80E00E9423
:103D00002E090E94470D25E0F22E00E010E07724F6
:103D1000739432E0E32E8091B602882349F069B1B2
:103D20008091B30268236C7F40E080E00E94DB0B4F
:103D30008091B702882379F063B186B16F73B0E4E4
:103D40008B9FC0011124682B8091B402682340E04E
:103D500081E00E94DB0B8091B802882359F066B1A4
:103D60008091B5028F7066956695682340E082E089
:103D70000E94DB0B8091130490911404EC01E88104
:103D8000F9810084F185E02D0995892B09F427C17B
:103D90008091130490911404DC01ED91FC91028454
:103DA000F385E02D09958F3F980721F3382F209157
:103DB0005B04222309F467C0873F09F055C01092C5
:103DC0005B0480911B04813751F0893709F03EC0B4
:103DD00080911504882371F20E941501CBCFE091E8
:103DE000A804F091A904309729F280915C04909185
:103DF0005D04DC011197B7FDDC01B595A7957A2F1D
:103E000043E154E09A0190E04E5F5F4F2F5F3F4FD8
:103E1000971770F4EA016F81E9016F83EA018885E1
:103E2000879588278795860FE9018F839F5FECCF61
:103E3000BB27AD5EBB4F17968C911797882311F067
:103E400018961C928BE194E0099594CFE091AA0416
:103E5000F091AB04309709F48DCF60915C04615010
:103E60004CE154E0099586CF20915C0430915D04CB
:103E7000F901ED5EFB4F80872F5F3F4F30935D046C
:103E800020935C0477CF20911804222309F466C0A4
:103E900087FD64C09FEF920F90931804E92FF0E024
:103EA000ED5EFB4F8087911165CF809119048823C7
:103EB00009F460CF803D09F446C060F4803921F1F7
:103EC000E0919E04F0919F04803C09F440C0109260
:103ED000190450CF843F29F1853F81F1803EB9F725
:103EE000E0919A04F0919B04309789F360911B0450
:103EF000D0E86D9FC001112460911C04680F792FD8
:103F0000711D80911A0418C0E0919C04F0919D04E9
:103F10003097E9F260911B0420E8629FC0011124F0
:103F2000EBCFE091A204F091A30460911B0470E038
:103F300080911C04309759F20995C9CFE091A404EF
:103F4000F091A504F2CFE091A004F091A104309784
:103F500009F4BDCF60911B0470E0D3CF303FB8F4BB
:103F6000282F207F30E08F7080931A04203F310586
:103F700061F1BCF4203C310529F164F420393105AC
:103F800009F0F8CEE092180420931904F3CE9C01B6
:103F90003327ECCF203D3105A9F0203E310591F3C8
:103FA000E9CE293F3105C1F034F4C901845F91099C
:103FB000029740F3DFCE2F3F310509F0DBCE0E94A0
:103FC0008C01D8CE70921804DFCF70925B041092EF
:103FD0005D0410925C04CECE0E945B01CBCE8FB705
:103FE000F8948090E8029090E902A090EA02B090E4
:103FF000EB028FBF8091E3029091E402A091E50271
:10400000B091E602409102015091030170E060E03E
:10401000881A990AAA0ABB0A481559056A057B0538
:1040200008F051C0840F951FA61FB71F8093E302AD
:104030009093E402A093E502B093E60283E1C82ED8
:1040400084E0D82EC2EFC630C8F4F601E55BFF4F1E
:104050008081823099F48091E1029091E2020C2EED
:1040600002C0959587950A94E2F780FF07C08C2FD0
:104070000E946302BC018C2F0E94B400CF5F8FEFBF
:10408000C81AD80AC630F9F68091010187FD1BC015
:10409000C0E02C2F30E080910101082E000C990B1C
:1040A0008217930784F0F29EF001F39EF00D112425
:1040B000E754FD4F618172812481438180810E9498
:1040C000C40FCF5FE6CF0115110509F424CE0E947D
:1040D000D905882309F41FCE0E9400001CCE052EAE
:1040E00097FB1EF400940E94862057FD07D00E9483
:1040F000A12007FC03D04EF40C94862050954095E7
:10410000309521953F4F4F4F5F4F08959095809583
:10411000709561957F4F8F4F9F4F08950E94C320E8
:10412000A59F900DB49F900DA49F800D911D11240B
:104130000895B7FF0C948E200E948E20821B930B53
:104140000895A1E21A2EAA1BBB1BFD010DC0AA1FD8
:10415000BB1FEE1FFF1FA217B307E407F50720F0F0
:10416000A21BB30BE40BF50B661F771F881F991F6B
:104170001A9469F760957095809590959B01AC01B4
:10418000BD01CF010895A29FB001B39FC001A39FBD
:10419000700D811D1124911DB29F700D811D112480
:1041A000911D0895991B79E004C0991F961708F096
:1041B000961B881F7A95C9F78095089597FB072E5F
:1041C00016F4009407D077FD09D00E94F82007FC70
:1041D00005D03EF4909581959F4F08957095619517
:1041E0007F4F0895EE0FFF1F0590F491E02D099485
:1041F000AA1BBB1B51E107C0AA1FBB1FA617B7070D
:1042000010F0A61BB70B881F991F5A95A9F7809528
:104210009095BC01CD0108950F931F93CF93DF9329
:104220008230910510F482E090E0E0910405F09175
:10423000050530E020E0B0E0A0E0309799F42115CA
:10424000310509F44AC0281B390B24303105D8F553
:104250008A819B816115710589F1FB0193838283BA
:10426000FE0111C040815181028113814817590715
:10427000E0F04817590799F4109761F012960C93E3
:10428000129713961C933296CF01DF91CF911F9115
:104290000F9108950093040510930505F4CF21159F
:1042A000310551F04217530738F0A901DB019A019B
:1042B000BD01DF01F801C1CFEF01F9CF90930505F2
:1042C00080930405CDCFFE01E20FF31F81939193FC
:1042D0002250310939832883D7CF209102053091AC
:1042E0000305232B41F420910601309107013093FF
:1042F0000305209302052091040130910501211549
:10430000310541F42DB73EB74091080150910901A4
:10431000241B350BE0910205F0910305E217F3072A
:10432000A0F42E1B3F0B2817390778F0AC014E5F25
:104330005F4F2417350748F04E0F5F1F509303055A
:1043400040930205819391939FCFF0E0E0E09CCFF2
:10435000CF93DF930097E9F0FC013297138212822A
:10436000A0910405B0910505ED0130E020E0109723
:10437000A1F420813181820F931F20910205309199
:1043800003052817390709F061C0F0930305E0938E
:104390000205DF91CF910895EA01CE17DF07E8F516
:1043A0004A815B819E0141155105B1F7E901FB830B
:1043B000EA8349915991C40FD51FEC17FD0761F4A9
:1043C000808191810296840F951FE90199838883EA
:1043D000828193819B838A83F0E0E0E012968D9145
:1043E0009C9113970097B9F52D913C911197CD01B0
:1043F0000296820F931F2091020530910305281722
:10440000390739F6309751F51092050510920405D9
:10441000B0930305A0930205BCCFD383C283408130
:104420005181840F951FC817D90761F44E5F5F4F04
:1044300088819981480F591F518340838A819B81CC
:10444000938382832115310509F0B0CFF0930505E0
:10445000E09304059ECFFD01DC01C0CF13821282E0
:10446000D7CFDC0101C06D9341505040E0F7089573
:10447000FB01DC014150504048F001900D920020BA
:10448000C9F701C01D9241505040E0F70895F894DB
:02449000FFCF5C
:10449200FFFF1300000006058000000000000F0669
:1044A2006F059C056A06CD05AB05BF05000000003F
:1044B200D80D00000000FF08D2084D09AF080E0118
:1044C200BF08B0084D617820736572766F73206102
:1044D2007474616368656400556E6B6E6F776E20ED
:1044E20070696E206D6F6465004932433A20546FE3
:1044F2006F206D616E7920627974657320726563D5
:104502006569766564004932433A20546F6F2066CC
:104512006577206279746573207265636569766573
:10452200640031302D626974206164647265737352
:10453200696E67206E6F7420737570706F72746528
:104542006400746F6F206D616E7920717565726998
:104552006573002F686F6D652F6A6775696C6C658E
:10456200322F6769742F5341352F73613566697233
:104572006D6174612F76362F5341354669726D61D4
:1045820074615F746F6E652F5341354669726D6158
:0C45920074615F746F6E652E696E6F00BF
:00000001FF
